:100000000C9462000C948A000C948A000C948A0070
:100010000C948A000C948A000C948A000C948A0038
:100020000C948A000C948A000C948A000C948A0028
:100030000C948A000C948A000C948A000C948A0018
:100040000C9405100C948A000C94D30F0C94AD0FF3
:100050000C948A000C948A000C948A000C948A00F8
:100060000C948A000C948A000000000023002600F3
:10007000290000000000240027002A0000000000E2
:10008000250028002B0004040404040404040202D4
:100090000202020203030303030301020408102007
:1000A0004080010204081020010204081020000012
:1000B0000008000201000003040700000000000027
:1000C0000000671011241FBECFEFD8E0DEBFCDBF08
:1000D00025E0A4EFB2E001C01D92AA38B207E1F713
:1000E00012E0A0E0B1E0EAEDF9E202C005900D9265
:1000F000A43FB107D9F710E0C2E6D0E004C02197D1
:10010000FE010E94E514C136D107C9F70E940F1104
:100110000C94EB140C940000E6E6F4E0A089B1899D
:1001200082E08C93A485B5851C92A685B78583E370
:100130008C93108EA489B58986E08C93A289B389AB
:100140008C9180618C93A289B3898C9188608C9307
:10015000A289B3898C9180688C930288F389E02D01
:1001600080818F7D80830895CF92DF92EF92FF92FE
:100170000F931F932FB7F894C0906004D090610440
:10018000E0906204F09063042FBF6C0D7D1D8E1D06
:100190009F1D4FB7F8940091600410916104209165
:1001A0006204309163044FBF0C151D052E053F05F9
:1001B00028F0601771078207930758F71F910F9176
:1001C000FF90EF90DF90CF900895AF92BF92CF92C3
:1001D000DF92EF92FF920F931F93CF93DF936C0107
:1001E0007B018B01040F151FEB015E01AE18BF08E8
:1001F000C017D10759F06991D601ED91FC9101909A
:10020000F081E02DC6010995892B79F7C501DF91B1
:10021000CF911F910F91FF90EF90DF90CF90BF9003
:10022000AF900895FC01538D448D252F30E0842F2D
:1002300090E0821B930B541710F0CF96089501970E
:100240000895FC01918D828D981761F0A28DAE0FFB
:10025000BF2FB11D5D968C91928D9F5F9F73928F82
:1002600090E008958FEF9FEF0895FC01918D828DAE
:10027000981731F0828DE80FF11D858D90E008957B
:100280008FEF9FEF0895FC01918D228D892F90E0D3
:10029000805C9F4F821B91098F739927089586E692
:1002A00094E00E94430121E0892B09F420E0822F91
:1002B000089580E090E0892B29F00E944F01811180
:1002C0000C9400000895FC01A48DA80FB92FB11D56
:1002D000A35ABF4F2C91848D90E001968F7399277C
:1002E000848FA689B7892C93A089B1898C9183705A
:1002F00080648C93938D848D981306C00288F38953
:10030000E02D80818F7D80830895EF92FF920F937F
:100310001F93CF93DF93EC0181E0888F9B8D8C8DB1
:1003200098131AC0E889F989808185FF15C09FB7A5
:10033000F894EE89FF896083E889F9898081837068
:10034000806480839FBF81E090E0DF91CF911F9117
:100350000F91FF90EF900895F62E0B8D10E00F5F38
:100360001F4F0F731127E02E8C8D8E110CC00FB60E
:1003700007FCFACFE889F989808185FFF5CFCE01A6
:100380000E946301F1CFEB8DEC0FFD2FF11DE35ABD
:10039000FF4FF0829FB7F8940B8FEA89FB89808129
:1003A0008062CFCFCF93DF93EC01888D8823B9F0A3
:1003B000AA89BB89E889F9898C9185FD03C0808170
:1003C00086FD0DC00FB607FCF7CF8C9185FFF2CFED
:1003D000808185FFEDCFCE010E946301E9CFDF91DF
:1003E000CF910895833081F028F4813099F08230E4
:1003F000A9F008958730A9F08830C9F08430B1F4AD
:10040000809180008F7D03C0809180008F778093E2
:100410008000089584B58F7784BD089584B58F7D5D
:10042000FBCF8091B0008F778093B00008958091CA
:10043000B0008F7DF9CF1F93CF93DF93282F30E04B
:10044000F901E255FF4F8491F901E656FF4FD4912F
:10045000F901EA57FF4FC491CC23A9F0162F81115F
:100460000E94F201EC2FF0E0EE0FFF1FE458FF4F67
:10047000A591B4918FB7F894EC91111108C0D09563
:10048000DE23DC938FBFDF91CF911F910895DE2B88
:10049000F8CFCF93DF9390E0FC01E656FF4F249115
:1004A0008A579F4FFC0184918823D1F090E0880FF8
:1004B000991FFC01EE58FF4FA591B491FC01E4583F
:1004C000FF4FC591D49161110EC09FB7F8948C91E4
:1004D000E22FE0958E238C932881E223E8839FBF4F
:1004E000DF91CF9108958FB7F894EC91E22BEC93C4
:1004F0008FBFF6CF1F93CF93DF93182FEB0161E0EF
:100500000E944902209739F460E0812FDF91CF915A
:100510001F910C941B02E12FF0E0E255FF4FE49194
:10052000E33039F148F4E130B9F0E230E9F0C038B5
:10053000D10551F761E0E9CFE73029F1E83059F111
:10054000E430A9F780918000806280938000D0938E
:100550008B00C0938A0004C084B5806884BDC7BD89
:10056000DF91CF911F91089584B5806284BDC8BD8D
:10057000F7CF80918000806880938000D0938900BD
:10058000C0938800EDCF8091B00080688093B00068
:10059000C093B300E5CF8091B00080628093B0003B
:1005A000C093B400DDCF8E3008F08E508770806429
:1005B00080937C0080917A00806480937A0080919F
:1005C0007A0086FDFCCF80917800909179000895A3
:1005D0003FB7F8948091460390914703A091480358
:1005E000B091490326B5A89B05C02F3F19F001968D
:1005F000A11DB11D3FBFBA2FA92F982F8827BC017D
:10060000CD01620F711D811D911D42E0660F771FA4
:10061000881F991F4A95D1F708958F929F92AF92A4
:10062000BF92CF92DF92EF92FF924B015C010E944A
:10063000E8026B017C010E94E8026C197D098E09B9
:100640009F09683E734081059105A8F321E0821A55
:100650009108A108B10888EEC80E83E0D81EE11CFD
:10066000F11C81149104A104B10429F7FF90EF90CB
:10067000DF90CF90BF90AF909F908F9008959F9202
:10068000AF92BF92CF92DF92EF92FF920F931F93A0
:10069000CF93DF938C01A12CC7E0D0E093E2E92E49
:1006A000F12CCC24C394D12C60E0F80180810E940D
:1006B0001B02C7010197F1F7F801218130E0F90130
:1006C000E255FF4F8491F901E656FF4FB490F901CE
:1006D000EA57FF4F94909920A9F081110E94F201EE
:1006E000E92DF0E0EE0FFF1FE859FF4FA591B491FF
:1006F000EC91BE2239F0C6010C2E01C0880F0A947D
:10070000EAF7A82A61E0F80180810E941B02C70174
:100710000197F1F7219708F0C7CF8A2DDF91CF918C
:100720001F910F91FF90EF90DF90CF90BF90AF900F
:100730009F9008950F931F93CF93DF938C0160E0F8
:10074000FC0182810E941B0283E290E00197F1F795
:10075000C8010E943F03C82FD0E0DC2FCC27C8017E
:100760000E943F03C82B61E0F80182810E941B02B6
:1007700060E070E080EC9FE7C2FD10C083E0D6959A
:10078000C7958A95E1F7BE0190E080E00E945F1373
:1007900020E030E040E85EE30E949C13DF91CF91BF
:1007A0001F910F91089585E595E00E949A030E949C
:1007B0009B1470934E0560934D0582E595E00E9471
:1007C0009A030E949B1470934A05609349058FE435
:1007D00095E00E949A030E949B1470934C056093CD
:1007E0004B050895682F86E694E00C948501DF920E
:1007F000EF92FF920F931F93CF93DF93E82ED92EA2
:10080000F62EE901142F052F8EEE0E94F20381EBE4
:100810000E94F20387E00E94F2038D2D0E94F203F2
:100820008E2D0E94F20380E00E94F2038F2D0E9421
:10083000F20380E00E94F20380E80E94F203802F1E
:100840000E94F203812F0E94F2038D2F0E94F20377
:100850008C2F0E94F2038FEF0E94F2038CEF0E9414
:10086000F2038FEF0E94F2038FEFDF91CF911F9180
:100870000F91FF90EF90DF900C94F203FF920F9393
:100880001F93CF93DF93D82FF92EC62F8A018EEEB8
:100890000E94F20381EB0E94F20380E10E94F203C6
:1008A0008F2D0E94F2038D2F0E94F20380E00E94A0
:1008B000F2038C2F0E94F203E8018991882319F03A
:1008C0000E94F203FACF8FEF0E94F2038CEF0E9496
:1008D000F2038FEF0E94F2038FEFDF91CF911F9110
:1008E0000F91FF900C94F203FC0101900020E9F7B6
:1008F0003197AF01481B590BBC0186E694E00C947C
:10090000E500EF92FF920F931F93CF93DF93362F63
:1009100041E050E060E070E07A018B0104C0EE0C31
:10092000FF1C001F111F8A95D2F7C70120913E03BB
:10093000332321F1822B80933E0360E083E00E9409
:100940001B02D0913E03C8E06D2F617082E00E94CF
:100950001B02D69561E084E00E941B0260E084E007
:100960000E941B02C15081F761E083E0DF91CF91CB
:100970001F910F91FF90EF900C941B0280958223A2
:10098000DACFCF93DF9382E10E94D302CC970CF4AD
:1009900046C01092650461E084E090E00E9481040A
:1009A00061E085E090E00E94810483E0809364042C
:1009B000C0914905D0914A0580918805909189059B
:1009C00061E08C179D0744F480918805909189051A
:1009D0008C179D072CF460E087E090E00E94810472
:1009E00080918805909189050297C817D90764F00E
:1009F00081E080936504DF91CF910895823011F0FA
:100A00008430B1F460E010C0809188059091890530
:100A10000297C817D9077CF710926504ECCF809134
:100A20006404813059F761E084E090E00E94810421
:100A300060E085E090E00E94810484E0B7CF61E04F
:100A400070E087E00E947A0270E060E085E00E943A
:100A50007A0260E083E090E00E94810460E082E03E
:100A600090E00E94810464E670E080E090E00C94E5
:100A70000D03CF93DF930E94C104C0914D05D09127
:100A80004E05809186059091870561E08C179D0742
:100A900044F480918605909187058C179D072CF46E
:100AA00060E081E090E00E94810480918605909151
:100AB00087050297C817D9075CF51092550484E1A1
:100AC0000E94D302892B81F560E090E080E00E94D3
:100AD000810481E10E94D302EC0180E10E94D302F3
:100AE00020914303211156C0EC970CF44DC0CC97D4
:100AF0000CF44AC061E086E090E00E94810461E06D
:100B000084E090E00E94810481E0809364043FC00F
:100B100080918605909187050297C817D9077CF2C6
:100B200081E080935504CBCFC0914B05D0914C050B
:100B3000809184059091850560E08C179D0744F0B5
:100B400080918405909185058C179D072CF061E0BC
:100B500090E080E00E948104809184059091850559
:100B60000297C817D90724F081E080934403B1CFDE
:100B700080918405909185050297C817D9070CF0DC
:100B8000A8CF10924403A5CF81E080934303DF9167
:100B9000CF910895CC970CF58091640461E0833087
:100BA00029F0823011F0843029F460E084E090E094
:100BB0000E94810460E086E090E00E94810482E06F
:100BC00080936404EC971CF760E084E090E00E945E
:100BD000810461E086E090E095CFEC97C4F68091C7
:100BE0006404833011F461E0F0CF823069F3843023
:100BF00081F7EACF8F929F92AF92BF92CF92DF920E
:100C0000EF92FF920F931F93CF93DF9386E694E0CA
:100C10000E944301C0915203D0915303892BB9F034
:100C2000009150031091510386E694E00E94210147
:100C300098012F5F3F4F33272C173D0741F0F801F4
:100C4000E05BFC4F84833093510320935003E09189
:100C50005003F091510380914A0390914B034091CE
:100C60004C0350914D0360914E0370914F0320E06F
:100C7000EC131DC040934C0350934D0360934E03FF
:100C800070934F0390934B0380934A03D093530385
:100C9000C0935203DF91CF911F910F91FF90EF907E
:100CA000DF90CF90BF90AF909F908F900895EC17FA
:100CB000FD0739F0DE01A05BBC4F14962C91219604
:100CC000DD27009741F42E3E99F6DC01A250BD4F7E
:100CD0002C93019603C080349105B8F3762F652FCD
:100CE000542F4427422B4F3F3FEF53073CEF6307FE
:100CF0003FEF730709F0BCCFD0935303C093520367
:100D000010924C0310924D0310924E0310924F0319
:100D100010924B0310924A03892B09F4BBCF8091A8
:100D2000FF02873009F414C7C0910103D091020378
:100D3000DC27CD27DC270091030310910403102743
:100D400001271027813B09F0A5CF80910003813056
:100D500009F0D9C0D0935D04C0935C04CE01029722
:100D6000099708F093C08E0144E0000F111F4A95C7
:100D7000E1F700501F4FF8012081318150E040E041
:100D800063E070E0CE010E94F703F8012281338115
:100D900050E040E065E070E0CE010E94F703F8010A
:100DA0002481358150E040E06CE070E0CE010E948B
:100DB000F703F8012681378150E040E06FE070E0F2
:100DC000CE010E94F703F8012085318550E040E014
:100DD00068E170E0CE010E94F703F80122853385B7
:100DE00050E040E063E270E0CE010E94F703F801BA
:100DF0002485358550E040E064E270E0CE010E9439
:100E0000F703F8012685378550E040E068E270E09E
:100E1000CE010E94F70385E595E00E949A030E94A7
:100E20009B146B0170934E0560934D0582E595E030
:100E30000E949A030E949B144B0170934C0560938F
:100E40004B058FE495E00E949A030E949B147093D7
:100E50004A05609349059B01770F440B550B62E0EF
:100E600070E0CE010E94F7039401990C440B550BDE
:100E700066E070E0CE010E94F7039601DD0C440BA2
:100E8000550B64E070E0CE010E94F703CE010B9792
:100E9000099708F0FFCE34E0CC0FDD1F3A95E1F75B
:100EA000C059DF4F88819981909389058093880587
:100EB0008A819B8190938705809386058C819D8193
:100EC00090938505809384058E819F8190938305FF
:100ED000809382058885998590938105809380050C
:100EE0008A859B8590937F0580937E058C859D8563
:100EF00090937D0580937C058E859F8590937B05DF
:100F000080937A05C7CE80910503803109F0C2CE67
:100F1000F0900703CE010B97099708F04FC40230F9
:100F2000110509F08DC3F1E0FF1282C080914103E9
:100F300090914203892B51F080915604909157046F
:100F4000892B21F4109242031092410380915504A1
:100F5000882309F46DC080914403882309F468C094
:100F600080916504882309F463C08091FC0290910C
:100F7000FD02892B09F05CC081E090E09093FD02B6
:100F80008093FC0220917C0530917D054BE1429FCE
:100F9000C001439F900D11249093FB028093FA02AD
:100FA0008935924034F088E592E09093FB0280937B
:100FB000FA028091FA029091FB026C01CC0CDD1CCC
:100FC000C80ED91E1C141D040CF0A4C00E94D3032B
:100FD0000E9439050E94FA05209141033091420395
:100FE0008091560490915704232B09F474C0892BE7
:100FF00089F36CE271E080E090E00E940D030E94B2
:10100000FA0520914103309142038091560490915A
:101010005704232B09F483C0892B89F30E941F05F1
:1010200010925704109256041092FD021092FC0286
:10103000CE010297099708F02DCE0031110509F075
:101040007CC431E0F31227C0FE01A4E0EE0FFF1FC5
:10105000AA95E1F7E050FF4F80819181019665E606
:1010600070E00E94D1146C01918380839C0150E058
:1010700040E063E070E0CE010E94F703FE0163E010
:10108000EE0FFF1F6A95E1F7E055FE4F8081B60134
:1010900090E00E9460140A31110509F0F5C431E0B6
:1010A000F312A3C5FE0184E0EE0FFF1F8A95E1F75E
:1010B000DF01A050BF4F14968D919C911597019719
:1010C00009F434C515969C938E931497E050FF4F06
:1010D000848195816EC5892B09F08BCF8EE00E94AB
:1010E000D302CC97BCF060E087E00E941B0260E076
:1010F00086E00E941B026CE670E085E00E947A02A6
:1011000064E170E080E090E00E940D0331E0C31ADA
:10111000D10858CF61E087E00E941B026ACF892B7B
:1011200009F07CCF4AE152E063E170E080915C0419
:1011300090915D040E943E0420917C0530917D05D4
:101140004BE1429FC001439F900D11249093FB02FD
:101150008093FA028935924034F088E592E09093CA
:10116000FB028093FA02C090FA02D090FB021C149A
:101170001D040CF050C00E94D3030E94390585E184
:101180000E94D302CC970CF446C00E94FA0520912D
:101190004103309142038091560490915704232BD0
:1011A00009F1892B91F36CE271E080E090E00E94FC
:1011B0000D0344E252E063E170E080915C049091A1
:1011C0005D040E943E040E94FA0520914103309183
:1011D00042038091560490915704232B29F1892BC7
:1011E00091F31CCF892BF9F660E087E00E941B0287
:1011F00061E086E00E941B0260E870E085E00E94EA
:101200007A0264E170E080E090E00E940D03F1E07A
:10121000CF1AD108ACCF0E94D3030E94390561E0F8
:1012200087E00E941B02BFCF892B09F0F7CE6CE24A
:1012300071E080E090E00E940D036CE271E080E0DC
:1012400090E00E940D030E94FA0520914103309125
:1012500042038091560490915704232B19F0892B57
:1012600091F3DCCE892B09F0D9CE61E083E090E0E8
:101270000E9481044CE252E063E170E080915C04E2
:1012800090915D040E943E048091820590918305B7
:1012900070E060E00E941C0F80915604909157040A
:1012A000892B09F0BBCE45E352E063E170E0809109
:1012B0005C0490915D040E943E0460E083E090E055
:1012C0000E9481040E94FA0520914103309142035B
:1012D0008091560490915704232B19F0892B91F398
:1012E0009DCE892B09F09ACE4CE352E063E170E089
:1012F00080915C0490915D040E943E040E94D3039F
:101300000E94390580917E0590917F0561E070E033
:101310000E941C0F8091560490915704892B09F06C
:101320007DCEC0905C04D0905D0445E452E063E162
:1013300070E0C6010E943E040E94D3030E9439055A
:101340004CE452E063E170E0C6010E943E0420914B
:101350007C0530917D054BE1429FC001439F900D7C
:1013600011249093FB028093FA028935924034F065
:1013700088E592E09093FB028093FA022091FA02B2
:101380003091FB0288E592E06C01C21AD30A1C146A
:101390001D040CF0DDC00E94D3030E9439050E9499
:1013A000FA052091410330914203809156049091B7
:1013B0005704232B09F4ADC0892B89F3809156047F
:1013C00090915704892B09F029CEC0905C04D090ED
:1013D0005D0446E552E063E170E0C6010E943E0410
:1013E00068EE73E080E090E00E940D0361E082E02F
:1013F00090E00E9481044EE552E063E170E0C60196
:101400000E943E040E94D3030E943905809180050A
:101410009091810562E070E00E941C0F809156045B
:1014200090915704892B09F0F9CDC0905C04D090BD
:101430005D0448E652E063E170E0C6010E943E04AC
:101440000E94C10460E082E090E00E9481040E945A
:10145000D3030E94390540E752E063E170E0C60122
:101460000E943E0480917A0590917B0561E070E0D6
:101470000E941C0F8091560490915704892B09F00B
:10148000CDCDC0905C04D0905D0449E752E063E1AB
:1014900070E0C6010E943E040E94D3030E943905F9
:1014A00040E852E063E170E0C6010E943E042091F2
:1014B0007C0530917D054BE1429FC001439F900D1B
:1014C00011249093FB028093FA028935924034F004
:1014D00088E592E09093FB028093FA02C090FA02B2
:1014E000D090FB021C141D040CF046C30E94D303D1
:1014F0000E9439050E94FA05209141033091420370
:101500008091560490915704232B39F1892B91F344
:1015100085CD892B09F052CF8FE00E94D302CC9762
:10152000BCF060E087E00E941B0261E086E00E9460
:101530001B0260E870E085E00E947A0264E170E0DE
:1015400080E090E00E940D0331E0C31AD1081FCF64
:1015500061E087E00E941B0231CF892B09F05ECD4C
:1015600060E087E00E941B0260E086E00E941B02B0
:1015700060E870E085E00E947A028EE00E94D3026B
:10158000CC9724F561E087E00E941B02809156040D
:1015900090915704892B09F041CDC0905C04D09004
:1015A0005D044AE852E063E170E0C6010E943E0437
:1015B00066E970E080E090E00E940D0342E952E0AD
:1015C00063E170E0C6010E943E042ACD64E170E050
:1015D00080E090E00E940D03F1E0CF1AD10882CFA5
:1015E000892B09F01BCD60E087E00E941B0260E0C0
:1015F00086E00E941B0260E870E085E00E947A02AB
:101600008EE00E94D302CC970CF4BCCF64E170E072
:1016100080E090E00E940D0321E0C21AD10809F495
:10162000B1CF0E94FA05209141033091420380918D
:10163000560490915704232B99F2892B91F3EECC09
:101640000330110509F03EC031E0F312F1CC809176
:10165000410390914203892B09F0EACC8091560412
:1016600090915704892B09F0E3CC4AE952E063E1F9
:1016700070E080915C0490915D040E943E0461E002
:1016800070E087E00E947A0270E060E085E00E94EE
:101690007A0260E083E090E00E94810460E082E0F2
:1016A00090E00E94810481E090E090934203809357
:1016B00041039093F9028093F80290934003809342
:1016C0003F03B6CC0930110509F0B2CC81E0F81225
:1016D000AFCC8091560490915704892B09F0A8CC87
:1016E00081E090E09093420380934103C0905C04BA
:1016F000D0905D0444EB52E063E170E0C6010E94CB
:101700003E040E941F0564E670E080E090E00E94C5
:101710000D034FE952E063E170E0C6010E943E0410
:1017200020917C0530917D054BE1429FC001439F94
:10173000900D11249093FB028093FA028935924018
:1017400034F088E592E09093FB028093FA02809156
:10175000FA029091FB026C01CC0CDD1CC80ED91E64
:101760001C141D04E4F48EE00E94D302CC97BCF05C
:1017700060E087E00E941B0260E086E00E941B029E
:101780006CE670E085E00E947A0264E170E080E03F
:1017900090E00E940D03F1E0CF1AD108E1CF61E0A3
:1017A00087E00E941B021092FD021092FC0281E071
:1017B00090E090935704809356043ACCC431D105FD
:1017C00009F036CC0230110581F421E061E082E0BD
:1017D00090E0F21609F45EC00B30110509F074C0F8
:1017E000E1E0FE123CC060E023C00330110581F54A
:1017F00031E0F31205C060E082E090E00E948104D5
:101800000A30110509F45BC00630110529F731E0F3
:10181000F31240CA80E10E94D3026C0181E10E9470
:10182000D302CC97E4F061E08CE3C816D104BCF09D
:1018300086E090E0DF91CF911F910F91FF90EF90A4
:10184000DF90CF90BF90AF909F908F900C948104C9
:1018500004301105B1F481E061E0F816C9F00131FE
:10186000110509F017CA21E0F21262C08EE00E9451
:10187000D302CC97A4F160E087E00E941B0260E0F5
:1018800048C00730110549F4E1E0FE12A5CF60E041
:1018900083E090E00E9481049FCF0530110509F09C
:1018A000AFCFF1E0FF12DBCF82E10E94D30261E013
:1018B000CC97ACF285E090E00E948104D0CF21E08B
:1018C000F212CDCF60E0F6CF0031110541F6F1E024
:1018D000FF122EC085E10E94D302CC9784F461E010
:1018E00087E0DF91CF911F910F91FF90EF90DF90F4
:1018F000CF90BF90AF909F908F900C941B028FE081
:101900000E94D302CC975CF360E087E00E941B0248
:1019100061E086E00E941B0260E870E085E00E94C2
:101920007A0264E170E080E090E00E940D0380CBD9
:1019300061E087E00E941B027BCB01311105D9F4E5
:1019400081E0F812A8CBFE0174E0EE0FFF1F7A953C
:10195000E1F7DF01A050BF4F8D919C911197019746
:1019600039F08D939C93E050FF4F8081918177CB2C
:1019700084E690E0F6CF0231110509F04AC0E1E0BB
:10198000FE1227C0FE0144E0EE0FFF1F4A95E1F76B
:10199000E050FF4F82819381019669EE73E00E94CF
:1019A000D1146C01938382839C0150E040E065E098
:1019B00070E0CE010E94F703FE0153E0EE0FFF1F1F
:1019C0005A95E1F7E055FE4F8181B60190E00E9403
:1019D00060140B31110509F02AC1E1E0FE1282C04A
:1019E000FE0174E0EE0FFF1F7A95E1F7DF01A050D2
:1019F000BF4F16968D919C911797019709F499C046
:101A000017969C938E931697E050FF4F868197818F
:101A10004DC00931110509F0BAC0F1E0FF12D9CF6C
:101A2000FE0134E0EE0FFF1F3A95E1F7DF01A05011
:101A3000BF4F12968D919C911397019709F473C033
:101A400013969C938E931297E050FF4F828193815F
:101A500069EE73E00E94D1146C01938382839C0130
:101A600050E040E065E070E0CE010E94F703FE0127
:101A700023E0EE0FFF1F2A95E1F7E055FE4F81812D
:101A8000B60190E00E9460140631110509F0A1CF63
:101A900081E0F81227C0FE01A4E0EE0FFF1FAA9517
:101AA000E1F7E050FF4F8681978101966DE370E08A
:101AB0000E94D1146C01978386839C0150E040E022
:101AC0006FE070E0CE010E94F703FE0163E0EE0FCD
:101AD000FF1F6A95E1F7E055FE4F8381B60190E064
:101AE0000E9460140132110509F041C121E0F21297
:101AF0001AC19E0184E0220F331F8A95E1F7F90194
:101B0000E050FF4F82859385019765EB70E00E945E
:101B1000D1140097A1F09387828720503F4FF9019D
:101B2000C284D384EBC088EE93E08ACF82E890E051
:101B3000C9CA8CE390E064CF84EB90E070C084EB82
:101B400090E0E9CF8EE190E0B7C084EB90E007C170
:101B50008DEA92E00E9474048AEB92E0DF91CF91CB
:101B60001F910F91FF90EF90DF90CF90BF90AF90BB
:101B70009F908F900C94740464E670E080E090E095
:101B80000E940D038EE5C82EDD24D3944ACD033187
:101B9000110509F080CA21E0F21227C0FE0194E08D
:101BA000EE0FFF1F9A95E1F7E050FF4F848195817A
:101BB000019663E870E00E94D1146C0195838483E0
:101BC0009C0150E040E06CE070E0CE010E94F70321
:101BD000FE01B3E0EE0FFF1FBA95E1F7E055FE4FAF
:101BE0008281B60190E00E9460140C31110509F069
:101BF0006CC021E0F21248C09E0144E0220F331F66
:101C00004A95E1F7F901E050FF4F808591850197F2
:101C100065EB70E00E94D114009709F48DCF918795
:101C2000808720503F4FF901C084D18418C007310C
:101C30001105D9F6F1E0FF1227C0FE0154E0EE0FC6
:101C4000FF1F5A95E1F7E050FF4F8085918501967F
:101C500065EB70E00E94D1146C019187808796013A
:101C600050E040E068E170E0CE010E94F703FE0121
:101C700023E0EE0FFF1F2A95E1F7E055FE4F848128
:101C8000B60190E00E9460140232110509F0A9C06B
:101C900021E0F2120C944A06FE0174E0EE0FFF1FE1
:101CA0007A95E1F7DF01A050BF4F1C968D919C9172
:101CB0001D97019709F446CF1D969C938E931C9710
:101CC000E050FF4F8485958565C00F31110509F0FF
:101CD00009CFF1E0FF1227C0FE0194E0EE0FFF1FD5
:101CE0009A95E1F7E050FF4F82859385019665EB69
:101CF00070E00E94D1146C0193878287960150E0B6
:101D000040E063E270E0CE010E94F703FE01B3E021
:101D1000EE0FFF1FBA95E1F7E055FE4F8581B60142
:101D200090E00E9460140A32110511F00C944A06EA
:101D300081E0F8120C944A069E0144E0220F331F02
:101D40004A95E1F7F901E050FF4F868597850197A5
:101D500065EB70E00E94D114009709F4F6CE9787E6
:101D6000868720503F4FF9010685178554C0003201
:101D7000110509F089CFF1E0FF120C944A06FE012B
:101D8000A4E0EE0FFF1FAA95E1F7E050FF4F848516
:101D9000958501966FE170E00E94D1148C019587C2
:101DA00084879C0150E040E064E270E0CE010E9434
:101DB000F70363E0CC0FDD1F6A95E1F7C055DE4FF6
:101DC0008E81B80190E0DF91CF911F910F91FF902C
:101DD000EF90DF90CF90BF90AF909F908F900C943A
:101DE00060140932110509F09ECF31E0F3120C9412
:101DF0004A06FE0154E0EE0FFF1F5A95E1F7E0504E
:101E0000FF4F86859785019665EB70E00E94D1149F
:101E10008C0197878687980150E040E068E270E087
:101E2000CE010E94F70393E0CC0FDD1F9A95E1F7F6
:101E3000C055DE4F8F81C5CFEF92FF920F931F9356
:101E4000CF93DF938C017B018091560490915704CE
:101E5000892B59F58091410390914203C09156041A
:101E6000D0915704892B29F0CD2BF9F40E94FA0563
:101E7000F1CF2097D1F4101611060CF05EC081E06E
:101E8000E816F10451F182E0E816F104A9F10E948C
:101E9000FA052091410330914203809156049091BC
:101EA0005704232B49F0892B91F3DF91CF911F9198
:101EB0000F91FF90EF900895892BB9F70E94D303FB
:101EC0000E9439056FEE71E080E090E00E940D0302
:101ED00021960C171D0799F6E8CF0E94FA0520916C
:101EE0004103309142038091560490915704232B73
:101EF00019F3892B91F3D9CF0E94FA052091410360
:101F0000309142038091560490915704232B19F08D
:101F1000892B91F3CACF892B41F680913F03909191
:101F20004003892B59F21092400310923F0361E065
:101F300082E090E00E948104C1CF0E94D3030E94FE
:101F4000390564E170E080E090E0DF91CF911F916E
:101F50000F91FF90EF900C940D031F920F920FB60C
:101F60000F9211242F933F934F935F936F937F931F
:101F70008F939F93AF93BF93EF93FF9386E694E085
:101F80000E946301FF91EF91BF91AF919F918F915B
:101F90007F916F915F914F913F912F910F900FBE65
:101FA0000F901F9018951F920F920FB60F92112449
:101FB0002F938F939F93EF93FF93E0917604F0918B
:101FC00077048081E0917C04F0917D0482FD1BC048
:101FD000908180917F048F5F8F732091800482179E
:101FE00041F0E0917F04F0E0EA59FB4F958F809338
:101FF0007F04FF91EF919F918F912F910F900FBED2
:102000000F901F9018958081F4CF1F920F920FB6FA
:102010000F9211242F933F938F939F93AF93BF936E
:102020008091600490916104A0916204B091630476
:102030003091450323E0230F2D3758F50196A11D5C
:10204000B11D209345038093600490936104A09395
:102050006204B09363048091460390914703A0917A
:102060004803B09149030196A11DB11D8093460319
:1020700090934703A0934803B0934903BF91AF9156
:102080009F918F913F912F910F900FBE0F901F90B6
:10209000189526E8230F0296A11DB11DD2CFCF932C
:1020A000DF93EC01842F68834A83298361E00E94D7
:1020B000490261E088810E94490260E089810E94B2
:1020C000490261E08A81DF91CF910C941B02E6E620
:1020D000F4E01382128288EE93E0A0E0B0E0848303
:1020E0009583A683B7838CE092E09183808385EC0F
:1020F00090E09587848784EC90E09787868780ECD2
:1021000090E0918B808B81EC90E0938B828B82ECC2
:1021100090E0958B848B86EC90E0978B868B118E6C
:10212000128E138E148EE3E0F5E01682178210866D
:102130001186128613861486158616861786108ACF
:10214000118A128A138A148A158AE0E0F1E08081EC
:1021500091819093890580938805828193819093E2
:10216000870580938605848195819093850580936A
:10217000840586819781909383058093820580856D
:1021800091859093810580938005828593859093B6
:102190007F0580937E058485958590937D0580934A
:1021A0007C058685978590937B0580937A05E8E585
:1021B000F5E01082118A2CE04AE06DE085E595E0BB
:1021C0000E944F102CE049E06DE082E595E00E940E
:1021D0004F102CE048E06DE08FE495E00E944F1036
:1021E00085E595E00E949A030E949B1470934E052A
:1021F00060934D058FE495E00E949A030E949B1422
:1022000070934C0560934B0582E595E00E949A031C
:102210000E949B1470934A05609349050895789431
:1022200084B5826084BD84B5816084BD85B58260DB
:1022300085BD85B5816085BD80916E00816080938C
:102240006E001092810080918100826080938100F5
:102250008091810081608093810080918000816005
:10226000809380008091B10084608093B100809160
:10227000B00081608093B00080917A008460809388
:102280007A0080917A00826080937A0080917A004F
:10229000816080937A0080917A00806880937A00D0
:1022A0001092C10010924505109246051092470504
:1022B0001092480510920505109206051092070528
:1022C0001092080568EB7BE080E090E00E94B4008B
:1022D00068EE73E080E090E00E940D030E948C00A5
:1022E0002FB7F8948091600490916104A0916204EA
:1022F000B09163042FBF8093050590930605A093CA
:102300000705B09308058DEB92E00E9474046AE023
:1023100070E080E090E00E94B40081E080931905B5
:102320002FB7F8948091600490916104A0916204A9
:10233000B09163042FBF8093050590930605A09389
:102340000705B09308058EEC92E00E947404109289
:1023500053031092520310925103109250031092A3
:102360004C0310924D0310924E0310924F031092A3
:102370004B0310924A030E948C006CE271E080E0F3
:1023800090E00E940D0360E081E10E94490260E05C
:1023900082E10E94490260E080E10E94490261E01E
:1023A00082E00E94490261E083E00E94490261E00C
:1023B00084E00E94490260E082E00E941B0260E02B
:1023C00083E00E941B0260E084E00E941B0261E047
:1023D00087E00E94490261E087E00E941B0261E001
:1023E00086E00E94490261E085E00E94490260E0C7
:1023F00086E00E941B0260E085E00E941B0260E014
:102400008EE00E94490260E085E10E94490260E09E
:102410008FE00E94490280915504882361F08091E9
:102420006504882341F045ED52E066E170E090E0FC
:1024300080E00E943E0460E090E080E00E94810421
:1024400060E081E090E00E94810460E087E090E03D
:102450000E94810460E084E090E00E94810460E0DA
:1024600086E090E00E94810460E082E090E00E94BB
:10247000810460E085E090E00E94810460E083E0F8
:1024800090E00E94810481E090E00E945A14813023
:1024900009F4A0C081E08093540400E211E050EC04
:1024A000E52E51E0F52E60EBC62E61E0D62ED0E091
:1024B000C0E0FE01EE0FFF1FE00FF11F6081718190
:1024C000F701EC0FFD1F808190E00E9466142196B9
:1024D000C730D10571F7005F1F4F28E0E20EF11CF5
:1024E000C016D10621F78091540461E070E090E0BD
:1024F0000E94661400E010E00E94FA0580915E04DC
:1025000090915F04019690935F0480935E04853FF1
:10251000914034F010925F0410925E040E94D30345
:10252000C0915C04D0915D04CE0102970997B8F583
:1025300080915A0490915B04019690935B04809380
:102540005A04853F91405CF110925B0410925A044A
:102550002091490530914A05032E000C440B550B80
:1025600062E070E0CE010E94F70320914B053091AC
:102570004C05032E000C440B550B66E070E0CE01B9
:102580000E94F70320914D0530914E05032E000C5B
:10259000440B550B64E070E0CE010E94F70380917C
:1025A0005804909159040196813325E79207C4F5A8
:1025B00090935904809358040E9439050115110520
:1025C00009F49ACF0E944F01882309F495CF0E9405
:1025D000000092CF8093540430ECE32E31E0F32ED0
:1025E00000E211E0D0E0C0E0F701EC0FFD1F8081B8
:1025F00090E00E945A14FE01EE0FFF1FE00FF11F42
:10260000918380832196C730D10571F788E0E80E69
:10261000F11C005F1F4F21E0003B120719F76ACF42
:1026200010925904109258048091560490915704C6
:10263000892BA1F0809155048823C9F1809165040C
:102640008823A9F145ED52E063E170E0CE010E94DC
:102650003E041092570410925604AECF209781F496
:1026600080915504882361F080916504882341F0AE
:1026700045ED52E066E170E090E080E00E943E04AB
:10268000CE010B97099708F097CF809155048823C6
:1026900071F080916504882351F045ED52E063E1CB
:1026A00070E0CE010E943E040E94FA0585CF44EE00
:1026B00052E063E170E0CE010E943E047DCFE894D9
:1026C00009C097FB3EF490958095709561957F4F7A
:1026D0008F4F9F4F9923A9F0F92F96E9BB27939528
:1026E000F695879577956795B795F111F8CFFAF438
:1026F000BB0F11F460FF1BC06F5F7F4F8F4F9F4F69
:1027000016C0882311F096E911C0772321F09EE8C6
:10271000872F762F05C0662371F096E8862F70E02C
:1027200060E02AF09A95660F771F881FDAF7880F06
:102730009695879597F908950E94AF130C942014ED
:102740000E94121438F00E94191420F0952311F001
:102750000C9409140C940F1411240C9454140E941A
:10276000311470F3959FC1F3950F50E0551F629F90
:10277000F001729FBB27F00DB11D639FAA27F00DDA
:10278000B11DAA1F649F6627B00DA11D661F829F01
:102790002227B00DA11D621F739FB00DA11D621FE6
:1027A000839FA00D611D221F749F3327A00D611D03
:1027B000231F849F600D211D822F762F6A2F1124E5
:1027C0009F5750409AF0F1F088234AF0EE0FFF1F18
:1027D000BB1F661F771F881F91505040A9F79E3F6F
:1027E000510580F00C9409140C9454145F3FE4F3E9
:1027F000983ED4F3869577956795B795F795E795C5
:102800009F5FC1F7FE2B880F911D9695879597F9CD
:10281000089597F99F6780E870E060E008959FEF62
:1028200080EC089500240A94161617061806090667
:10283000089500240A941216130614060506089536
:10284000092E0394000C11F4882352F0BB0F40F4BE
:10285000BF2B11F460FF04C06F5F7F4F8F4F9F4FFE
:10286000089557FD9058440F551F59F05F3F71F080
:102870004795880F97FB991F61F09F3F79F08795E7
:102880000895121613061406551FF2CF4695F1DF70
:1028900008C0161617061806991FF1CF8695710500
:1028A000610508940895E894BB2766277727CB0134
:1028B00097F90895A8E1B0E042E050E00C946D145F
:1028C0000196272F0E947C140C947B140E948D1477
:1028D000272F0C948E14DC01CB01FC01F999FECF5B
:1028E00006C0F2BDE1BDF89A319600B40D92415098
:1028F0005040B8F70895262FF999FECF92BD81BDBB
:10290000F89A019700B4021639F01FBA20BD0FB62D
:10291000F894FA9AF99A0FBE0895262FF999FECFE6
:102920001FBA92BD81BD20BD0FB6F894FA9AF99AEC
:102930000FBE019608950E94A2146894B1110C94E0
:10294000541408950E94391488F09F5798F0B92FB5
:102950009927B751B0F0E1F0660F771F881F991FD4
:102960001AF0BA95C9F714C0B13091F00E9453140F
:10297000B1E008950C945314672F782F8827B85F1F
:1029800039F0B93FCCF3869577956795B395D9F72C
:102990003EF490958095709561957F4F8F4F9F4F36
:1029A0000895AA1BBB1B51E107C0AA1FBB1FA61796
:1029B000B70710F0A61BB70B881F991F5A95A9F7E8
:1029C00080959095BC01CD010895EE0FFF1F0590F5
:0A29D000F491E02D0994F894FFCF74
:1029DA0000000000000000000000000000000000ED
:1029EA0000000000000000000000000000000000DD
:1029FA005F0078006E00130037001E0007001E00FB
:102A0A005F0078006E000C0037001E0007001E00F1
:102A1A005F0078006E00070037001E0007001E00E6
:102A2A005F0078006E00130037001E0007001E00CA
:102A3A005F0078006E00130037001E0007001E00BA
:102A4A005F0078006E00130037001E0007001E00AA
:102A5A005F0078006E00130037001E0007001E009A
:102A6A005F0078006E00130037001E0007001E008A
:102A7A005F0078006E00130037001E0007001E007A
:102A8A00000000000000000000000000000000003C
:102A9A0004080C1014181C002024282C3034380484
:102AAA003C4044484C505408585C6064686C700C54
:102ABA0074787C8084888C109094989CA0A4A80038
:102ACA00ACB0B4B8BCC0C400C8CCD0D4D8DCE01C0C
:102ADA00E4E8ECF0F4F8FC20000000008501E500D1
:102AEA001201D2014301210135016D76312073743F
:102AFA00617274006D763120656E640052702073C5
:102B0A007461727400527020656E640054312073CF
:102B1A007461727400543120656E64006D763220DF
:102B2A007374617274006D763220656E640073741A
:102B3A006D2073746172740073746D20656E640025
:102B4A00543220737461727400543220656E6400CA
:102B5A006D7634207374617274006D763420656EFC
:102B6A006400416C6C20656E640053746F70006D74
:102B7A006F746F72207265706C616365005379734C
:102B8A0074656D205265736574000D0A00564D44D4
:102B9A0050565F317C315F564D4450560A00564DAF
:102BAA004450525F00436F6F6B696E6720526561D4
:102BBA0064792100506C6561736520776169742EB0
:042BCA002E2E0000AB
:00000001FF
