:100000000C9462000C948A000C948A000C948A0070
:100010000C94690A0C948A000C94730A0C948A005C
:100020000C948A000C948A000C948A000C945B0A4D
:100030000C948A000C948A000C948A000C948A0018
:100040000C94110A0C948A000C94DF090C94B909E1
:100050000C948A000C948A000C948A000C948A00F8
:100060000C948A000C948A000000000024002700F1
:100070002A0000000000250028002B0000000000DE
:1000800023002600290004040404040404040202DA
:100090000202020203030303030301020408102007
:1000A0004080010204081020010204081020000012
:1000B0000008000201000003040700000000000027
:1000C00000007D0A11241FBECFEFD8E0DEBFCDBFF8
:1000D00024E0A0EBB3E001C01D92A33BB207E1F71F
:1000E00013E0A0E0B1E0E2E6F0E202C005900D927C
:1000F000A03BB107D9F710E0C2E6D0E004C02197D9
:10010000FE010E942910C136D107C9F70E94EF0AEB
:100110000C942F100C940000EAECF3E0A089B18954
:1001200082E08C93A485B5851C92A685B78580E175
:100130008C93108EA489B58986E08C93A289B389AB
:100140008C9180618C93A289B3898C9188608C9307
:10015000A289B3898C9180688C930288F389E02D01
:1001600080818F7D80830895CF92DF92EF92FF92FE
:100170000F931F932FB7F894C090C603D090C70376
:10018000E090C803F090C9032FBF6C0D7D1D8E1D3C
:100190009F1D4FB7F8940091C6031091C70320919B
:1001A000C8033091C9034FBF0C151D052E053F052F
:1001B00028F0601771078207930758F71F910F9176
:1001C000FF90EF90DF90CF900895AF92BF92CF92C3
:1001D000DF92EF92FF920F931F93CF93DF936C0107
:1001E0007B018B01040F151FEB015E01AE18BF08E8
:1001F000C017D10759F06991D601ED91FC9101909A
:10020000F081E02DC6010995892B79F7C501DF91B1
:10021000CF911F910F91FF90EF90DF90CF90BF9003
:10022000AF900895FC01538D448D252F30E0842F2D
:1002300090E0821B930B541710F0CF96089501970E
:100240000895FC01918D828D981761F0A28DAE0FFB
:10025000BF2FB11D5D968C91928D9F5F9F73928F82
:1002600090E008958FEF9FEF0895FC01918D828DAE
:10027000981731F0828DE80FF11D858D90E008957B
:100280008FEF9FEF0895FC01918D228D892F90E0D3
:10029000805C9F4F821B91098F73992708958AEC88
:1002A00093E00E94430121E0892B09F420E0822F92
:1002B000089580E090E0892B29F00E944F01811180
:1002C0000C9400000895FC01A48DA80FB92FB11D56
:1002D000A35ABF4F2C91848D90E001968F7399277C
:1002E000848FA689B7892C93A089B1898C9183705A
:1002F00080648C93938D848D981306C00288F38953
:10030000E02D80818F7D80830895EF92FF920F937F
:100310001F93CF93DF93EC0181E0888F9B8D8C8DB1
:1003200098131AC0E889F989808185FF15C09FB7A5
:10033000F894EE89FF896083E889F9898081837068
:10034000806480839FBF81E090E0DF91CF911F9117
:100350000F91FF90EF900895F62E0B8D10E00F5F38
:100360001F4F0F731127E02E8C8D8E110CC00FB60E
:1003700007FCFACFE889F989808185FFF5CFCE01A6
:100380000E946301F1CFEB8DEC0FFD2FF11DE35ABD
:10039000FF4FF0829FB7F8940B8FEA89FB89808129
:1003A0008062CFCFCF93DF93EC01888D8823B9F0A3
:1003B000AA89BB89E889F9898C9185FD03C0808170
:1003C00086FD0DC00FB607FCF7CF8C9185FFF2CFED
:1003D000808185FFEDCFCE010E946301E9CFDF91DF
:1003E000CF910895833081F028F4813099F08230E4
:1003F000A9F008958730A9F08830C9F08430B1F4AD
:10040000809180008F7D03C0809180008F778093E2
:100410008000089584B58F7784BD089584B58F7D5D
:10042000FBCF8091B0008F778093B00008958091CA
:10043000B0008F7DF9CFCF93DF93282F30E0F90103
:10044000E255FF4F8491F901E656FF4FD491F9012F
:10045000EA57FF4FC491CC23A1F081110E94F20111
:10046000EC2FF0E0EE0FFF1FE458FF4FA591B49181
:10047000EC91ED2381E090E009F480E0DF91CF91F1
:10048000089580E090E0FACF1F93CF93DF93282F59
:1004900030E0F901E255FF4F8491F901E656FF4F34
:1004A000D491F901EA57FF4FC491CC23A9F0162F3C
:1004B00081110E94F201EC2FF0E0EE0FFF1FEE58C9
:1004C000FF4FA591B4918FB7F894EC91111108C02A
:1004D000D095DE23DC938FBFDF91CF911F910895DC
:1004E000DE2BF8CFCF93DF9390E0FC01E656FF4F71
:1004F00024918A579F4FFC0184918823D1F090E08A
:10050000880F991FFC01E859FF4FA591B491FC0198
:10051000EE58FF4FC591D49161110EC09FB7F8946A
:100520008C91E22FE0958E238C932881E223E8833F
:100530009FBFDF91CF9108958FB7F894EC91E22B94
:10054000EC938FBFF6CF1F93CF93DF93182FEB0160
:1005500061E00E947202CF3FD10539F461E0812F42
:10056000DF91CF911F910C944402E12FF0E0E2550E
:10057000FF4FE491E33039F148F4E130B9F0E23073
:10058000E9F0C038D10554F760E0E9CFE73029F150
:10059000E83059F1E430A9F78091800080628093BF
:1005A0008000D0938B00C0938A0004C084B580681B
:1005B00084BDC7BDDF91CF911F91089584B580623E
:1005C00084BDC8BDF7CF8091800080688093800093
:1005D000D0938900C0938800EDCF8091B0008068EF
:1005E0008093B000C093B300E5CF8091B0008062EB
:1005F0008093B000C093B400DDCF8E3008F08E50F1
:100600008770806480937C0080917A0080648093FE
:100610007A0080917A0086FDFCCF809178009091DD
:10062000790008953FB7F8948091B3039091B40393
:10063000A091B503B091B60326B5A89B05C02F3F86
:1006400019F00196A11DB11D3FBFBA2FA92F982FF8
:100650008827BC01CD01620F711D811D911D42E0F3
:10066000660F771F881F991F4A95D1F708958F92BB
:100670009F92AF92BF92CF92DF92EF92FF926B0167
:100680007C010E9412034B015C01C114D104E104FE
:10069000F104B9F00E941203681979098A099B09CB
:1006A000683E73408105910580F321E0C21AD108AC
:1006B000E108F10888EE880E83E0981EA11CB11CA9
:1006C000E4CFFF90EF90DF90CF90BF90AF909F90DE
:1006D0008F900895AF92BF92CF92DF92EF92FF92E8
:1006E0001F93CF93DF937C0110E0C7E0D0E083E25B
:1006F000C82ED12CAA24A394B12C60E0F7018081EC
:100700000E944402C6010197F1F7F70181810E941E
:100710001B02892B39F0C5010C2E01C0880F0A94E9
:10072000EAF7182B61E0F70180810E944402C601BC
:100730000197F1F7219708F7812FDF91CF911F9152
:10074000FF90EF90DF90CF90BF90AF9008950F9300
:100750001F93CF93DF938C0160E0FC0182810E94A4
:10076000440283E290E00197F1F7C8010E946A0316
:10077000C82FD0E0DC2FCC27C8010E946A03C82B09
:1007800061E0F80182810E94440260E070E080EC48
:100790009FE7C2FD10C083E0D695C7958A95E1F723
:1007A000BE0190E080E00E94A80D20E030E040E82B
:1007B0005EE30E94090EDF91CF911F910F91089582
:1007C000CF93DF93C82F682F617084E00E944402AA
:1007D000D0E0BE0175956795617083E00E94440288
:1007E000D595C795D595C7956C2F617082E00E940D
:1007F000440283E1DF91CF910C94FD02FC01019052
:100800000020E9F73197AF01481B590BBC018AEC76
:1008100093E00C94E5008F929F92AF92BF920F935A
:100820001F93CF93DF93CDB7DEB7A1970FB6F894A0
:10083000DEBF0FBECDBF19A2423008F44AE08E01E0
:100840000F5D1F4F842E912CB12CA12CA50194017A
:100850000E94C70EE62FB901CA01EA30F4F4E05D48
:10086000D801EE938D01232B242B252B79F790E0D3
:1008700080E0109719F0CD010E94FE03A1960FB6FB
:10088000F894DEBF0FBECDBFDF91CF911F910F91C6
:10089000BF90AF909F908F900895E95CE1CFCF9289
:1008A000DF92EF92FF92CF93DF936B017C016DE2B9
:1008B0008AEC93E00E948501EC0166277727CB0143
:1008C0006C197D098E099F094AE00E940B048C0F68
:1008D0009D1FDF91CF91FF90EF90DF90CF90089513
:1008E0000C94FE03CF93DF930E94FE03EC0184E19E
:1008F00091E00E94FE038C0F9D1FDF91CF91089520
:100900004F925F926F927F928F929F92AF92BF921F
:10091000CF92DF92EF92FF920F931F93CF936B01D1
:100920007C01742EAC019B010E94FC0F882399F07E
:1009300087E191E0CF911F910F91FF90EF90DF90B1
:10094000CF90BF90AF909F908F907F906F905F906F
:100950004F900C94FE0346015701E894B7F82FEF2F
:100960003FEF4FE75FE7C501B4010E94FC0F811123
:100970000DC02FEF3FEF4FE75FE7C501B4010E94C5
:10098000A30D18161CF48BE191E0D4CF2FEF3FEFAD
:100990004FE75FE4C701B6010E94F70F18161CF479
:1009A0008FE191E0C7CF2FEF3FEF4FE75FECC7013B
:1009B000B6010E94A30D87FDF3CF20E030E0A9012E
:1009C000C701B6010E94A30D10E000E087FF0AC036
:1009D0006DE28AEC93E00E9485018C01F7FAF094B5
:1009E000F7F8F094C0E060E070E080E09FE37C16F0
:1009F00041F020E030E040E251E40E94560FCF5F2A
:100A0000F6CFA70196010E94EA0E2B013C010E943D
:100A1000C80F4B015C014AE00E940B047C01E00E10
:100A2000F11ECC23C1F1C501B4010E94A80D9B01A8
:100A3000AC01C301B2010E94E90E4B015C016EE200
:100A40008AEC93E00E948501E80EF91EC15018F16E
:100A500020E030E040E251E4C501B4010E94090EFB
:100A60002B013C010E94C80F4B01B12CA12C4AE084
:100A7000C501B4010E940B04E80EF91EC501B401C2
:100A80000E94A80D9B01AC01C301B2010E94E90EB6
:100A90004B015C01DBCFC701CF911F910F91FF90FC
:100AA000EF90DF90CF90BF90AF909F908F907F900E
:100AB0006F905F904F900895CF93DF93BC01990F93
:100AC000880B990B97FF0CC00E944F04EC0184E146
:100AD00091E00E94FE038C0F9D1FDF91CF9108953E
:100AE0004AE00E940B04F2CF0F931F93CF93DF9342
:100AF000EC0183E291E00E94700484E00E94E00334
:100B00008C010E945C050C3311053CF18091B70308
:100B10009091B80387309105B4F401969093B8038F
:100B20008093B70384E10E94FD02CE5EDE4FC817BA
:100B3000D9070CF043C060E082E1DF91CF911F91B3
:100B40000F910C94440288E090E09093B803809356
:100B5000B70361E00E944402E5CF1092B8031092FF
:100B6000B70360E088E00E9444028FE291E00E94B7
:100B7000700484E10E94FD028C010E945C05053F27
:100B8000110564F461E082E10E94440287E491E08F
:100B9000DF91CF911F910F910C947204CD5EDE4FC7
:100BA000C017D10744F460E082E10E94440287E666
:100BB00091E00E9472048BE791E0EACFDF91CF9140
:100BC0001F910F9108950F931F93CF93C82F0E94E9
:100BD000FD028C01CD9794F480E991E00E947004AD
:100BE0006C2F70E090E080E04AE00E940B0484EA01
:100BF00091E00E947004C8010E945C05C801CF9179
:100C00001F910F910895CF92DF92EF92FF9288EAA1
:100C100091E00E9470048DEA94E00E94A7036B01AA
:100C20007C0142E00E94800484E191E00E94FE0386
:100C3000C701B601FF90EF90DF90CF900895CF925B
:100C4000DF92EF92FF92CF93DF93EC018EEA91E077
:100C50000E94700486E00E94E0037C010E945C0513
:100C60008CE3E816F1040CF452C01092C303809197
:100C7000B9039091BA03873091050CF501969093D2
:100C8000BA038093B9030E9403066B017C01BE0185
:100C9000615A7F4F072E000C880B990B0E94AA0DFA
:100CA000A70196010E94A30D60E018160CF047C042
:100CB000DF91CF91FF90EF90DF90CF90089588E083
:100CC00090E09093BA038093B9038091BE03909112
:100CD000BF038430910554F482309105B4F497FF3A
:100CE0000EC01092BF031092BE03CDCF8830910585
:100CF000C4F701969093BF038093BE03C4CF2E9A8E
:100D00008091BE039091BF03F4CF2E98F9CF10923B
:100D1000BF031092BE031092BA031092B9032E982B
:100D20000E9403066B017C0120E030E04CEA52E4B3
:100D30000E94A30D181664F01092C30361E080E1D5
:100D4000DF91CF91FF90EF90DF90CF900C94440211
:100D500020E030E044EB52E4C701B6010E94A30D4D
:100D600061E087FD10C0BE01615A7F4F072E000C65
:100D7000880B990B0E94AA0DA70196010E94A30D52
:100D800087FF04C060E080E10E94440281E080931C
:100D9000C3038AEB91E0DF91CF91FF90EF90DF905A
:100DA000CF900C947204CF92DF92EF92FF92CF9388
:100DB000DF93EC0180ED91E00E94700480EB94E001
:100DC0000E94A7036B017C0142E00E94800484E141
:100DD00091E00E94FE030E94030620E030E04CED0B
:100DE00052E4C701B6010E94A30D181664F01092D8
:100DF000C40361E081E1DF91CF91FF90EF90DF903C
:100E0000CF900C944402BE016E577F4F072E000C0A
:100E1000880B990B0E94AA0DA70196010E94A30DB1
:100E2000181624F060E081E10E94440281E0809382
:100E3000C40386ED91E0DF91CF91FF90EF90DF90BA
:100E4000CF900C9472048AE090E00E941F068EE11D
:100E500090E00E9474058AE090E00E94D30664E16D
:100E600070E080E090E00C9437030F931F93CF93D2
:100E7000DF93EC0184EF91E00E94700487E00E9410
:100E80001B02892B89F580EF91E00E947204C23029
:100E9000D10509F48FC05CF5219709F46BC0CAEC49
:100EA000D8E08EE00E94E305CC978CF061E086E00C
:100EB0000E9444026CE670E086E00E94A30264E1B6
:100EC00070E080E090E00E943703219751F761E0E5
:100ED00086E00E9444026FEF70E085E0DF91CF91E1
:100EE0001F910F910C94A3028BEE91E0CECFC330F3
:100EF000D10509F47EC0249791F6CEEED2E004E647
:100F000010E061E086E00E94440260E870E085E065
:100F10000E94A3028EE00E94E305CC97C4F2CE01AA
:100F2000B8010E940110892B09F082C00E9423079A
:100F3000219739F764E670E080E090E00E94370383
:100F4000CEE5D1E061E086E00E94440260E870E016
:100F500085E00E94A3028EE00E94E305CC970CF48A
:100F6000B6CF64E170E080E090E00E943703219703
:100F700049F7ADCFCEEED2E060E870E086E00E94A7
:100F8000A30261E085E00E94440264E170E080E039
:100F900090E00E943703219779F76FEF70E086E0C9
:100FA0000E94A30261E085E0DF91CF911F910F9134
:100FB0000C944402C2ECD1E004E610E060E870E07A
:100FC00086E00E94A30261E085E00E944402CE0117
:100FD000B8010E940110892B29F40E942307219750
:100FE00069F7DBCF64E170E080E090E00E943703B6
:100FF000F6CFC2ECD1E004E610E061E086E00E94AA
:10100000440260E870E085E00E94A302CE01B801CE
:101010000E940110892B29F40E942307219769F768
:1010200056CF64E170E080E090E00E943703F6CF95
:1010300064E170E080E090E00E94370379CFCF92C6
:10104000DF92EF92FF920F931F93CF93DF938FEF77
:1010500093E09093010180930001C12CD12C760183
:10106000C0E001E010E08C2D8D7F843019F184E127
:1010700092E00E9470044AE0C701B6010E940B048E
:101080008BE292E00E9470048C2D0E94E00390930A
:101090000101809300010E945C0580910001909104
:1010A0000101CC973CF4C8010C2C01C0880F0A94B4
:1010B000EAF7C82B8FEFC81AD80AE80AF80A88E0BE
:1010C000C816D104E104F10471F68C2FDF91CF91A1
:1010D0001F910F91FF90EF90DF90CF9008958F9226
:1010E0009F92AF92BF92DF92EF92FF920F931F9366
:1010F000CF93DF935C018B01F12CE12CD0E0C0E0B9
:10110000D12C87E0882E912CEA14FB04D1F1023017
:10111000110551F007301105F1F00130110561F4AE
:101120009092BA038092B9038AE090E00E941F0671
:101130008EE190E00E9474056AEC73E080E090E03C
:101140000E9437030730110511F4D1101AC08FEF38
:10115000E81AF80AD9CF8AE090E00E941F068EE1D3
:1011600090E00E9474050E941F08843039F0219697
:10117000C430D1050CF3DD24D394DECFD0E0C0E041
:10118000DBCFDF91CF911F910F91FF90EF90DF9018
:10119000BF90AF909F908F900895CF93DF93EC0115
:1011A00084E392E00E94720481E090E00E9435079F
:1011B00066E970E080E090E00E94370361E080E142
:1011C0000E94440266E970E080E090E00E943703EC
:1011D00061E082E10E94440266E970E080E090E014
:1011E0000E9437032F9AC230D10509F4A8C0C3303A
:1011F000D10509F4ABC070E060E083E190E0C1305C
:10120000D10509F4A0C02F9861E070E085E090E07E
:101210000E946F0861E070E084E090E00E946F0837
:1012200082E090E00E94350761E081E10E94440283
:1012300068EE73E080E090E00E94370361E089E0AF
:101240000E944402D7FD0CC0C230D1050CF483C00B
:1012500062E070E08DE290E0C430D1050CF47FC014
:1012600060E089E00E94440266E970E080E090E07E
:101270000E94370383E090E00E94350766E970E042
:1012800080E090E00E94370384E090E00E94350700
:1012900066E970E080E090E00E94370361E070E072
:1012A0008FE090E00E946F0881E090E00E94350797
:1012B00068EE73E080E090E00E94370361E081E136
:1012C0000E94440282E090E00E94350768EE73E0DD
:1012D00080E090E00E94370361E089E00E944402D0
:1012E000D7FD09C0C230D105ECF162E070E08DE2BB
:1012F00090E02497DCF160E089E00E94440266E916
:1013000070E080E090E00E94370383E090E00E946C
:10131000350766E970E080E090E00E94370384E0E2
:1013200090E00E94350766E970E080E090E00E945E
:10133000370386E592E0DF91CF910C94720470E060
:1013400060E081E190E00E946F085DCF70E060E0B6
:101350008AE090E0F8CF62E070E087E390E00E94DE
:101360006F087ECF62E070E087E390E00E946F0834
:10137000C2CF1F920F920FB60F9211242F933F935B
:101380004F935F936F937F938F939F93AF93BF938D
:10139000EF93FF938AEC93E00E946301FF91EF913A
:1013A000BF91AF919F918F917F916F915F914F917D
:1013B0003F912F910F900FBE0F901F9018951F9285
:1013C0000F920FB60F9211242F938F939F93EF9349
:1013D000FF93E091DA03F091DB038081E091E00379
:1013E000F091E10382FD1BC090818091E3038F5F48
:1013F0008F732091E403821741F0E091E303F0E062
:10140000E653FC4F958F8093E303FF91EF919F91FB
:101410008F912F910F900FBE0F901F901895808184
:10142000F4CF1F920F920FB60F9211242F933F9378
:101430008F939F93AF93BF938091C6039091C703FF
:10144000A091C803B091C9033091B20323E0230FE8
:101450002D3758F50196A11DB11D2093B20380933D
:10146000C6039093C703A093C803B093C9038091A8
:10147000B3039091B403A091B503B091B603019664
:10148000A11DB11D8093B3039093B403A093B50342
:10149000B093B603BF91AF919F918F913F912F91E0
:1014A0000F900FBE0F901F90189526E8230F0296FD
:1014B000A11DB11DD2CF1F920F920FB60F92112412
:1014C00010928500109284000F900FBE0F901F9015
:1014D00018951F920F920FB60F9211240F900FBE06
:1014E0000F901F9018951F920F920FB60F92112414
:1014F0000F900FBE0F901F9018950F931F93CF93CF
:10150000DF93EAECF3E01382128288EE93E0A0E02E
:10151000B0E084839583A683B78386E091E09183CE
:10152000808385EC90E09587848784EC90E09787B2
:10153000868780EC90E0918B808B81EC90E0938BA0
:10154000828B82EC90E0958B848B86EC90E0978B7D
:10155000868B118E128E138E148EE7E6F4E01682BF
:1015600017821086118612861386148615861686B3
:101570001786108A118A128A138A148A158AC0EB78
:10158000D4E00DE008838BE08A831CE0198361E0DE
:101590000E94720261E088810E94720260E089818B
:1015A0000E94720261E08A810E944402CDEAD4E086
:1015B00008838AE08A83198361E00E94720261E0F5
:1015C00088810E94720260E089810E94720261E05B
:1015D0008A81DF91CF911F910F910C9444027894EE
:1015E00084B5826084BD84B5816084BD85B5826028
:1015F00085BD85B5816085BD80916E0081608093D9
:101600006E00109281008091810082608093810041
:101610008091810081608093810080918000816051
:10162000809380008091B10084608093B1008091AC
:10163000B00081608093B00080917A0084608093D4
:101640007A0080917A00826080937A0080917A009B
:10165000816080937A0080917A00806880937A001C
:101660001092C1001092A9041092AA041092AB0427
:101670001092AC041092690410926A0410926B04E8
:1016800010926C0468EB7BE080E090E00E94B40074
:1016900068EE73E080E090E00E9437030E948C00C7
:1016A0002FB7F8948091C6039091C703A091C80307
:1016B000B091C9032FBF8093690490936A04A093EB
:1016C0006B04B0936C0489E792E00E9470046AE0B6
:1016D00070E080E090E00E94B40081E080937D049F
:1016E0002FB7F8948091C6039091C703A091C803C7
:1016F000B091C9032FBF8093690490936A04A093AB
:101700006B04B0936C048AE892E00E9470040E941B
:101710008C0061E080E00E94720261E080E00E9443
:10172000440261E084E00E94720261E083E00E9472
:10173000720261E082E00E94720261E088E00E9431
:10174000720260E088E00E94440261E089E00E9449
:10175000720260E089E00E94440284B1806C84B926
:101760002E982F9861E082E10E94720260E082E18F
:101770000E94440261E081E10E94720260E081E126
:101780000E94440261E080E10E94720260E080E118
:101790000E94440260E084E10E94720260E087E0FF
:1017A0000E94720261E086E00E94720261E085E0C0
:1017B0000E94720260E086E00E94440260E085E0E0
:1017C0000E94440260E08EE00E94720260E085E1C7
:1017D0000E94720260E08FE00E94720287E00E9425
:1017E0001B02892B09F053C081E992E00E94720428
:1017F00090E080E00E9435078091C403882329F09F
:101800008091C30361E0811101C060E080E00E942B
:1018100044021092BC031092BB0361E080E10E947D
:1018200044021092BA031092B9031092B8031092B6
:10183000B70300E010E083E0E82EF12C92E0C92E1F
:10184000D12C1092C5030E941F088093C5038AEC17
:1018500092E00E9470046091C50370E090E080E027
:101860004AE00E940B0484E191E00E94FE03C091D3
:10187000C503C03209F409C158F5C23009F489C062
:1018800048F4C13009F467C01092C2032EC08AEA3E
:1018900092E0ACCFC43009F4A7C0C830A9F71092C9
:1018A000C20384E593E00E94720481E090E090938B
:1018B000C1038093C0038091C4038823B1F0809159
:1018C000C303882391F081E090E00E94CD080DC011
:1018D000C03809F4F1C020F4C832B1F62F9A05C01F
:1018E000C83809F402C1C03A79F61092BF031092C9
:1018F000BE0390E080E00E94740590E080E00E94CA
:101900001F0690E080E00E94D3068091C4038823E4
:1019100009F4EDC08091C303882309F4E8C061E0B5
:1019200080E00E9444021092BD031092BC0310920A
:10193000BB0368EE73E080E090E00E94370301157E
:10194000110509F47ECF0E944F01882309F479CF55
:101950000E94000076CF8DED92E00E94720480918B
:10196000C403882351F08091C303882331F0809110
:10197000C203811107C0C093C2031092C103109229
:10198000C003B3CF1092C20384EF92E00E947204AE
:10199000F4CF1092C2038091C303882371F382E2D3
:1019A00093E00E94720481E090E00E94350761E0BC
:1019B00080E10E94440266E970E080E090E00E94CD
:1019C00037032F9A70E060E082E090E00E946F0899
:1019D0002F9884E090E00E94350766E970E080E08F
:1019E00090E00E943703C9CF1092C2038091C403D4
:1019F000882319F28BE393E00E94720481E090E067
:101A00000E94350766E970E080E090E00E943703AD
:101A100082E090E00E94350766E970E080E090E0A7
:101A20000E94370361E082E10E94440266E970E0AF
:101A300080E090E00E94370361E081E10E9444026F
:101A400066E970E080E090E00E94370361E089E0A1
:101A50000E94440267E070E08EE190E00E946F080F
:101A600060E089E00E94440266E970E080E090E076
:101A70000E94370383E090E00E94350766E970E03A
:101A800080E090E00E943703A4CF1092C2038BE65F
:101A900093E00E947204F092C103E092C00380912F
:101AA000C403882309F421CF8091C303882309F458
:101AB0001CCF83E090E009CF1092C203D092C10303
:101AC000C092C00382E893E00E9472048091C40334
:101AD000882309F40ACF8091C303882309F405CF32
:101AE0008091C0039091C103F0CE2F98FECE8091DB
:101AF000BB039091BC0382309105FCF08AE993E02E
:101B00000E9470046091BD0370E090E080E04AE0C4
:101B10000E940B048BEA93E00E9472041092BC03B3
:101B20001092BB03C091BD036C2F80E00E94440261
:101B300081E0C827C093BD03FCCE01969093BC03FF
:101B40008093BB03F6CE0E94E50D08F481E0089572
:101B5000E89409C097FB3EF4909580957095619547
:101B60007F4F8F4F9F4F9923A9F0F92F96E9BB27FD
:101B70009395F695879577956795B795F111F8CF79
:101B8000FAF4BB0F11F460FF1BC06F5F7F4F8F4FE4
:101B90009F4F16C0882311F096E911C0772321F0DA
:101BA0009EE8872F762F05C0662371F096E8862F72
:101BB00070E060E02AF09A95660F771F881FDAF7C9
:101BC000880F9695879597F90895990F0008550FF6
:101BD000AA0BE0E8FEEF16161706E807F907C0F0B3
:101BE00012161306E407F50798F0621B730B840BBB
:101BF000950B39F40A2661F0232B242B252B21F495
:101C000008950A2609F4A140A6958FEF811D811D34
:101C100008950E941C0E0C948D0E0E947F0E38F0C9
:101C20000E94860E20F0952311F00C94760E0C94F1
:101C30007C0E11240C94C10E0E949E0E70F3959F91
:101C4000C1F3950F50E0551F629FF001729FBB27B3
:101C5000F00DB11D639FAA27F00DB11DAA1F649F4F
:101C60006627B00DA11D661F829F2227B00DA11D02
:101C7000621F739FB00DA11D621F839FA00D611D88
:101C8000221F749F3327A00D611D231F849F600DA9
:101C9000211D822F762F6A2F11249F5750409AF0D2
:101CA000F1F088234AF0EE0FFF1FBB1F661F771F5E
:101CB000881F91505040A9F79E3F510580F00C9429
:101CC000760E0C94C10E5F3FE4F3983ED4F38695F4
:101CD00077956795B795F795E7959F5FC1F7FE2BC9
:101CE000880F911D9695879597F9089597F99F67A5
:101CF00080E870E060E008959FEF80EC0895002494
:101D00000A941616170618060906089500240A9460
:101D100012161306140605060895092E0394000CE6
:101D200011F4882352F0BB0F40F4BF2B11F460FF75
:101D300004C06F5F7F4F8F4F9F4F089557FD90589E
:101D4000440F551F59F05F3F71F04795880F97FB7F
:101D5000991F61F09F3F79F0879508951216130639
:101D60001406551FF2CF4695F1DF08C01616170668
:101D70001806991FF1CF869571056105089408959D
:101D8000E894BB2766277727CB0197F90895A1E24E
:101D90001A2EAA1BBB1BFD010DC0AA1FBB1FEE1FE5
:101DA000FF1FA217B307E407F50720F0A21BB30B30
:101DB000E40BF50B661F771F881F991F1A9469F7AC
:101DC00060957095809590959B01AC01BD01CF0108
:101DD00008955058BB27AA270E94010F0C948D0E1E
:101DE0000E947F0E38F00E94860E20F039F49F3F4B
:101DF00019F426F40C947C0E0EF4E095E7FB0C9499
:101E0000760EE92F0E949E0E58F3BA1762077307E9
:101E10008407950720F079F4A6F50C94C00E0EF413
:101E2000E0950B2EBA2FA02D0B01B90190010C01EA
:101E3000CA01A0011124FF27591B99F0593F50F402
:101E4000503E68F11A16F040A22F232F342F44275A
:101E5000585FF3CF469537952795A795F040539552
:101E6000C9F77EF41F16BA0B620B730B840BBAF022
:101E70009150A1F0FF0FBB1F661F771F881FC2F78D
:101E80000EC0BA0F621F731F841F48F487957795A1
:101E90006795B795F7959E3F08F0B0CF9395880F5B
:101EA00008F09927EE0F9795879508950E946A0F7D
:101EB0000C948D0E0E94860E58F00E947F0E40F00A
:101EC00029F45F3F29F00C94760E51110C94C10E49
:101ED0000C947C0E0E949E0E68F39923B1F3552357
:101EE00091F3951B550BBB27AA276217730784072D
:101EF00038F09F5F5F4F220F331F441FAA1FA9F3C3
:101F000035D00E2E3AF0E0E832D091505040E695B0
:101F1000001CCAF72BD0FE2F29D0660F771F881F11
:101F2000BB1F261737074807AB07B0E809F0BB0B04
:101F3000802DBF01FF2793585F4F3AF09E3F510518
:101F400078F00C94760E0C94C10E5F3FE4F3983E4B
:101F5000D4F3869577956795B795F7959F5FC9F701
:101F6000880F911D9695879597F90895E1E0660F82
:101F7000771F881FBB1F621773078407BA0720F0FB
:101F8000621B730B840BBA0BEE1F88F7E095089564
:101F90000E94A60E88F09F5798F0B92F9927B75145
:101FA000B0F0E1F0660F771F881F991F1AF0BA95FD
:101FB000C9F714C0B13091F00E94C00EB1E008958D
:101FC0000C94C00E672F782F8827B85F39F0B93F7F
:101FD000CCF3869577956795B395D9F73EF49095B0
:101FE0008095709561957F4F8F4F9F4F08950E9408
:101FF000E50D08F48FEF08950E94E50D880B990B0D
:10200000089597FB072E16F4009407D077FD09D0AA
:102010000E94151007FC05D03EF4909581959F4FC6
:102020000895709561957F4F0895AA1BBB1B51E1E0
:1020300007C0AA1FBB1FA617B70710F0A61BB70B38
:10204000881F991F5A95A9F780959095BC01CD01DD
:102050000895EE0FFF1F0590F491E02D0994F89478
:02206000FFCFB0
:10206200FF03000000008501E5001201D2014301D7
:10207200210135010D0A006E616E00696E66006F06
:1020820076660057614C6576656C2D343D200050B4
:10209200726573737572652053656E736F72205625
:1020A200616C75653A20005761746572204C6F77D8
:1020B2002050726573737572652848656174657224
:1020C200204F6E2E21210057617465722048656190
:1020D200746572204F666620212100576174657213
:1020E20020426F78205265616479204F6B21210074
:1020F200416D6269656E742053656E736F722870EC
:10210200696E2D00293A20004320323D200052659D
:102112004C6576656C2D363D2000526563697065AD
:1021220020426F78205265616479204F6B21210033
:102132004320313D2000537465616D20426F782049
:102142005265616479204F6B21210048494748005C
:102152004C4F57004D6F746F72204D6F7665203A69
:10216200204D6F746F72204572726F7220466C61DF
:10217200673D20004D75782053656E736F7228732A
:1021820077697463682D6368292000207265616431
:10219200733A20006C6D735F73746172745F427581
:1021A20074746F6E50726573732D2D5374617274F3
:1021B2002D2D2D2121006C6D735F73746172745F1C
:1021C200427574746F6E50726573732D2D456E6413
:1021D2002E2E2E2D2D2D212100564D4450565F318D
:1021E2007C315F564D4450560A00564D4450525F62
:1021F200004D6F746F72204546204572726F7221D6
:102202002120284C4F57293F3F004D6F746F722099
:102212004546204E6F2D4572726F722028484947FD
:1022220048292D2D2D2D2D212100675F627974659E
:102232004D757856616C756531203A200053746192
:10224200727420427574746F6E2050726573736578
:1022520064212100537461727420427574746F6E2C
:10226200205265616C202D2D2D2D2D2D2D20436F9B
:102272006E74696E75652050726573736564202192
:10228200210077617465725F427574746F6E50726B
:102292006573732D2D2D2D2D212100737465616DB4
:1022A2005F427574746F6E50726573732D2D2D2D90
:1022B2002D2121004C6172676520427574746F6E26
:1022C2002050726573736564212100536D616C6CDB
:1022D2002D427574746F6E2050726573736564213C
:1022E20021004D656469756D20427574746F6E20AE
:1022F200507265737365642121004C454420546F0C
:1023020067676C652E2E2E2E2E5B005D202121002C
:00000001FF
