:100000000C9462000C948A000C948A000C948A0070
:100010000C9432090C948A000C943C090C948A00CC
:100020000C948A000C948A000C948A000C94240985
:100030000C948A000C948A000C948A000C948A0018
:100040000C94DA080C948A000C94A8080C9482088A
:100050000C948A000C948A000C948A000C948A00F8
:100060000C948A000C948A000000000024002700F1
:100070002A0000000000250028002B0000000000DE
:1000800023002600290004040404040404040202DA
:100090000202020203030303030301020408102007
:1000A0004080010204081020010204081020000012
:1000B0000008000201000003040700000000000027
:1000C0000000460911241FBECFEFD8E0DEBFCDBF30
:1000D00013E0A0E0B1E0E8E0FEE102C005900D927F
:1000E000A839B107D9F724E0A8E9B3E001C01D920F
:1000F000A535B207E1F710E0C2E6D0E004C02197D1
:10010000FE010E94FC0EC136D107C9F70E94A60964
:100110000C94020F0C940000AF92BF92CF92DF922A
:10012000EF92FF920F931F93CF93DF936C017B01AC
:100130008B01040F151FEB015E01AE18BF08C0173D
:10014000D10759F06991D601ED91FC910190F081B0
:10015000E02DC6010995892B79F7C501DF91CF9173
:100160001F910F91FF90EF90DF90CF90BF90AF90D5
:100170000895FC01538D448D252F30E0842F90E0AD
:10018000821B930B541710F0CF9608950197089592
:10019000FC01918D828D981761F0A28DAE0FBF2F5B
:1001A000B11D5D968C91928D9F5F9F73928F90E0B1
:1001B00008958FEF9FEF0895FC01918D828D981720
:1001C00031F0828DE80FF11D858D90E008958FEF5D
:1001D0009FEF0895FC01918D228D892F90E0805C26
:1001E0009F4F821B91098F739927089582EB93E0AB
:1001F0000E94EA0021E0892B09F420E0822F089573
:1002000080E090E0892B29F00E94F60081110C9487
:1002100000000895FC01A48DA80FB92FB11DA35AA9
:10022000BF4F2C91848D90E001968F739927848F16
:10023000A689B7892C93A089B1898C918370806439
:100240008C93938D848D981306C00288F389E02DDA
:1002500080818F7D80830895EF92FF920F931F938B
:10026000CF93DF93EC0181E0888F9B8D8C8D981369
:100270001AC0E889F989808185FF15C09FB7F89475
:10028000EE89FF896083E889F989808183708064C1
:1002900080839FBF81E090E0DF91CF911F910F910C
:1002A000FF90EF900895F62E0B8D10E00F5F1F4F1B
:1002B0000F731127E02E8C8D8E110CC00FB607FC2A
:1002C000FACFE889F989808185FFF5CFCE010E94B8
:1002D0000A01F1CFEB8DEC0FFD2FF11DE35AFF4F1B
:1002E000F0829FB7F8940B8FEA89FB898081806246
:1002F000CFCFCF93DF93EC01888D8823B9F0AA8903
:10030000BB89E889F9898C9185FD03C0808186FDD0
:100310000DC00FB607FCF7CF8C9185FFF2CF80811F
:1003200085FFEDCFCE010E940A01E9CFDF91CF9189
:100330000895833081F028F4813099F08230A9F05B
:1003400008958730A9F08830C9F08430B1F48091E5
:1003500080008F7D03C0809180008F778093800024
:10036000089584B58F7784BD089584B58F7DFBCFC4
:100370008091B0008F778093B00008958091B00095
:100380008F7DF9CFCF93DF93282F30E0F901E2552D
:10039000FF4F8491F901E656FF4FD491F901EA57D6
:1003A000FF4FC491CC23A1F081110E949901EC2F41
:1003B000F0E0EE0FFF1FE458FF4FA591B491EC91D0
:1003C000ED2381E090E009F480E0DF91CF91089582
:1003D00080E090E0FACF1F93CF93DF93282F30E097
:1003E000F901E255FF4F8491F901E656FF4FD49190
:1003F000F901EA57FF4FC491CC23A9F0162F8111C0
:100400000E949901EC2FF0E0EE0FFF1FEE58FF4F16
:10041000A591B4918FB7F894EC91111108C0D095C3
:10042000DE23DC938FBFDF91CF911F910895DE2BE8
:10043000F8CFCF93DF9390E0FC01E656FF4F249175
:100440008A579F4FFC0184918823D1F090E0880F58
:10045000991FFC01E859FF4FA591B491FC01EE589A
:10046000FF4FC591D49161110EC09FB7F8948C9144
:10047000E22FE0958E238C932881E223E8839FBFAF
:10048000DF91CF9108958FB7F894EC91E22BEC9324
:100490008FBFF6CF1F93CF93DF93182FEB0161E04F
:1004A0000E941902CF3FD10539F461E0812FDF911D
:1004B000CF911F910C94EB01E12FF0E0E255FF4F3B
:1004C000E491E33039F148F4E130B9F0E230E9F099
:1004D000C038D10554F760E0E9CFE73029F1E830C2
:1004E00059F1E430A9F78091800080628093800008
:1004F000D0938B00C0938A0004C084B5806884BD0B
:10050000C7BDDF91CF911F91089584B5806284BDEE
:10051000C8BDF7CF80918000806880938000D09321
:100520008900C0938800EDCF8091B00080688093EF
:10053000B000C093B300E5CF8091B000806280939B
:10054000B000C093B400DDCF8E3008F08E508770BD
:10055000806480937C0080917A00806480937A002C
:1005600080917A0086FDFCCF80917800909179008F
:1005700008953FB7F89480919F039091A003A091B4
:10058000A103B091A20326B5A89B05C02F3F19F087
:100590000196A11DB11D3FBFBA2FA92F982F882703
:1005A000BC01CD01620F711D811D911D43E0660FDD
:1005B000771F881F991F4A95D1F708958F929F92B0
:1005C000AF92BF92CF92DF92EF92FF926B017C01CC
:1005D0000E94B9024B015C01C114D104E104F10491
:1005E000B9F00E94B902681979098A099B09683E25
:1005F00073408105910580F321E0C21AD108E1081A
:10060000F10888EE880E83E0981EA11CB11CE4CF8F
:10061000FF90EF90DF90CF90BF90AF909F908F9022
:100620000895AF92BF92CF92DF92EF92FF921F9305
:10063000CF93DF937C0110E0C7E0D0E080E1C82ECB
:10064000D12CAA24A394B12C60E0F70180810E94F0
:10065000EB01C6010197F1F7F70181810E94C20108
:10066000892B39F0C5010C2E01C0880F0A94EAF7D6
:10067000182B61E0F70180810E94EB01C601019710
:10068000F1F7219708F7812FDF91CF911F91FF900C
:10069000EF90DF90CF90BF90AF9008950F931F938E
:1006A000CF93DF938C0160E0FC0182810E94EB011B
:1006B00080E190E00197F1F7C8010E941103C82F73
:1006C000D0E0DC2FCC27C8010E941103C82B61E0C9
:1006D000F80182810E94EB0160E070E080EC9FE70E
:1006E000C2FD10C083E0D695C7958A95E1F7BE019B
:1006F00090E080E00E94890D20E030E040E85EE379
:100700000E94400EDF91CF911F910F910895CF93DA
:10071000DF93C82F682F617084E00E94EB01D0E066
:10072000BE0175956795617083E00E94EB01D595D8
:10073000C795D595C7956C2F617082E00E94EB013B
:1007400083E1DF91CF910C94A402FC010190002081
:10075000E9F73197AF01481B590BBC0182EB93E0DD
:100760000C948C008F929F92AF92BF920F931F9325
:10077000CF93DF93CDB7DEB7A1970FB6F894DEBF66
:100780000FBECDBF19A2423008F44AE08E010F5DC2
:100790001F4F842E912CB12CA12CA50194010E94F5
:1007A000C60EE62FB901CA01EA30F4F4E05DD801C3
:1007B000EE938D01232B242B252B79F790E080E0FD
:1007C000109719F0CD010E94A503A1960FB6F894D9
:1007D000DEBF0FBECDBFDF91CF911F910F91BF90B4
:1007E000AF909F908F900895E95CE1CFCF92DF9218
:1007F000EF92FF92CF93DF936B017C016DE282EB6E
:1008000093E00E942C01EC0166277727CB016C193D
:100810007D098E099F094AE00E94B2038C0F9D1F3B
:10082000DF91CF91FF90EF90DF90CF9008950C94DF
:10083000A503CF93DF930E94A503EC0184E191E02F
:100840000E94A5038C0F9D1FDF91CF9108954F92B9
:100850005F926F927F928F929F92AF92BF92CF9250
:10086000DF92EF92FF920F931F93CF936B017C0166
:10087000742EAC019B010E94AD0E882399F087E194
:1008800091E0CF911F910F91FF90EF90DF90CF906B
:10089000BF90AF909F908F907F906F905F904F90A0
:1008A0000C94A50346015701E894B7F82FEF3FEFEA
:1008B0004FE75FE7C501B4010E94AD0E81110DC085
:1008C0002FEF3FEF4FE75FE7C501B4010E94E30C54
:1008D00018161CF48BE191E0D4CF2FEF3FEF4FE7D8
:1008E0005FE4C701B6010E943B0E18161CF48FE1AD
:1008F00091E0C7CF2FEF3FEF4FE75FECC701B601A5
:100900000E94E30C87FDF3CF20E030E0A901C7018E
:10091000B6010E94E30C10E000E087FF0AC06DE220
:1009200082EB93E00E942C018C01F7FAF094F7F827
:10093000F094C0E060E070E080E09FE37C1641F05E
:1009400020E030E040E251E40E94E80CCF5FF6CFB7
:10095000A70196010E94770C2B013C010E945A0DC1
:100960004B015C014AE00E94B2037C01E00EF11EE3
:10097000CC23C1F1C501B4010E94890D9B01AC01DA
:10098000C301B2010E94760C4B015C016EE282EB66
:1009900093E00E942C01E80EF91EC15018F120E0EE
:1009A00030E040E251E4C501B4010E94400E2B0149
:1009B0003C010E945A0D4B01B12CA12C4AE0C5010B
:1009C000B4010E94B203E80EF91EC501B4010E94F1
:1009D000890D9B01AC01C301B2010E94760C4B0151
:1009E0005C01DBCFC701CF911F910F91FF90EF907A
:1009F000DF90CF90BF90AF909F908F907F906F903F
:100A00005F904F900895CF93DF93BC01990F880BAF
:100A1000990B97FF0CC00E94F603EC0184E191E072
:100A20000E94A5038C0F9D1FDF91CF9108954AE08E
:100A30000E94B203F2CF0F931F93CF93DF93EC0189
:100A400083E291E00E94170484E00E9487038C01F6
:100A50000E9403050C3311053CF18091A303909192
:100A6000A40387309105B4F401969093A403809376
:100A7000A30384E10E94A402CE5EDE4FC817D9070B
:100A80000CF043C060E082E1DF91CF911F910F91A4
:100A90000C94EB0188E090E09093A4038093A3036F
:100AA00061E00E94EB01E5CF1092A4031092A30332
:100AB00060E088E00E94EB018FE291E00E94170461
:100AC00084E10E94A4028C010E940305053F1105E8
:100AD00064F461E082E10E94EB0187E491E0DF9140
:100AE000CF911F910F910C941904CD5EDE4FC0176A
:100AF000D10744F460E082E10E94EB0187E691E0D7
:100B00000E9419048BE791E0EACFDF91CF911F910A
:100B10000F910895CF92DF92EF92FF9280E991E0DA
:100B20000E9417048FE494E00E944E036B017C0145
:100B300042E00E94270484E191E00E94A503C701DE
:100B4000B601FF90EF90DF90CF900895CF92DF92A3
:100B5000EF92FF92CF93DF93EC0186E991E00E9440
:100B6000170486E00E9487037C010E9403058CE342
:100B7000E816F1040CF452C01092AF038091A50363
:100B80009091A603873091050CF501969093A603EA
:100B90008093A5030E948A056B017C01BE01615A06
:100BA0007F4F072E000C880B990B0E948B0DA7011D
:100BB00096010E94E30C60E018160CF047C0DF912C
:100BC000CF91FF90EF90DF90CF90089588E090E074
:100BD0009093A6038093A5038091AA039091AB0301
:100BE0008430910554F482309105B4F497FF0EC01F
:100BF0001092AB031092AA03CDCF88309105C4F7B1
:100C000001969093AB038093AA03C4CF2E9A809150
:100C1000AA039091AB03F4CF2E98F9CF1092AB03B7
:100C20001092AA031092A6031092A5032E980E9478
:100C30008A056B017C0120E030E04CEA52E40E941E
:100C4000E30C181664F01092AF0361E080E1DF91CD
:100C5000CF91FF90EF90DF90CF900C94EB0120E0CC
:100C600030E044EB52E4C701B6010E94E30C61E0BE
:100C700087FD10C0BE01615A7F4F072E000C880B04
:100C8000990B0E948B0DA70196010E94E30C87FF30
:100C900004C060E080E10E94EB0181E08093AF033B
:100CA00082EA91E0DF91CF91FF90EF90DF90CF90BB
:100CB0000C941904CF92DF92EF92FF92CF93DF93BF
:100CC000EC0188EB91E00E94170482E594E00E9419
:100CD0004E036B017C0142E00E94270484E191E015
:100CE0000E94A5030E948A0520E030E04CED52E40A
:100CF000C701B6010E94E30C181664F01092B0030D
:100D000061E081E1DF91CF91FF90EF90DF90CF9094
:100D10000C94EB01BE016E577F4F072E000C880B21
:100D2000990B0E948B0DA70196010E94E30C1816E7
:100D300024F060E081E10E94EB0181E08093B00348
:100D40008EEB91E0DF91CF91FF90EF90DF90CF900D
:100D50000C9419048AE090E00E94A6058EE190E0D0
:100D60000E941B058AE090E00E945A0664E170E050
:100D700080E090E00C94DE02CF92DF92EF92FF923F
:100D80000F931F93CF93DF937C018B01D0E0C0E0E2
:100D900087E0C82ED12C01301105B1F002301105C9
:100DA000B9F06AEC73E080E090E00E94DE022196E8
:100DB000EC16FD0681F7DF91CF911F910F91FF9007
:100DC000EF90DF90CF900895D092A603C092A50334
:100DD0008AE090E00E94A6058EE190E00E941B054B
:100DE000E0CF0F931F93CF93C82F0E94A4028C01D2
:100DF000CD9794F483ED91E00E9417046C2F70E07E
:100E000090E080E04AE00E94B20387EE91E00E9409
:100E10001704C8010E940305C801CF911F910F91CB
:100E200008950F931F93CF93DF93EC0184EF91E02C
:100E30000E94170487E00E94C201892B89F580EF88
:100E400091E00E941904C230D10509F48FC05CF50D
:100E5000219709F46BC0CAECD8E08EE00E94F1063D
:100E6000CC978CF061E086E00E94EB016CE670E0CC
:100E700086E00E944A0264E170E080E090E00E9417
:100E8000DE02219751F761E086E00E94EB016FEFEF
:100E900070E085E0DF91CF911F910F910C944A0291
:100EA0008BEE91E0CECFC330D10509F47EC02497FC
:100EB00091F6CEEED2E004E610E061E086E00E941A
:100EC000EB0160E870E085E00E944A028EE00E943B
:100ED000F106CC97C4F2CE01B8010E94B20E892B64
:100EE00009F082C00E94AA06219739F764E670E0F3
:100EF00080E090E00E94DE02CEE5D1E061E086E095
:100F00000E94EB0160E870E085E00E944A028EE0FA
:100F10000E94F106CC970CF4B6CF64E170E080E05B
:100F200090E00E94DE02219749F7ADCFCEEED2E0ED
:100F300060E870E086E00E944A0261E085E00E947D
:100F4000EB0164E170E080E090E00E94DE02219716
:100F500079F76FEF70E086E00E944A0261E085E079
:100F6000DF91CF911F910F910C94EB01C2ECD1E076
:100F700004E610E060E870E086E00E944A0261E06A
:100F800085E00E94EB01CE01B8010E94B20E892BD0
:100F900029F40E94AA06219769F7DBCF64E170E08B
:100FA00080E090E00E94DE02F6CFC2ECD1E004E6E1
:100FB00010E061E086E00E94EB0160E870E085E00F
:100FC0000E944A02CE01B8010E94B20E892B29F478
:100FD0000E94AA06219769F756CF64E170E080E08D
:100FE00090E00E94DE02F6CF64E170E080E090E0E5
:100FF0000E94DE0279CFCF93DF93EC0184E192E08F
:101000000E94190481E090E00E94110766E970E0F7
:1010100080E090E00E94DE0261E080E10E94EB014E
:1010200066E970E080E090E00E94DE0261E082E12B
:101030000E94EB0166E970E080E090E00E94DE0231
:101040002F9AC130D10584F070E060E081E190E03A
:10105000C330D1050CF453C070E060E08CE090E048
:10106000C330D10509F44BC02F9861E070E085E0F2
:1010700090E00E94BC0661E070E084E090E00E9495
:10108000BC0682E090E00E94110761E081E10E94CD
:10109000EB0168EE73E080E090E00E94DE0261E028
:1010A00089E00E94EB01249730F462E070E08AE569
:1010B00090E00E94BC0660E089E00E94EB0166E9D6
:1010C00070E080E090E00E94DE0283E090E00E9409
:1010D000110766E970E080E090E00E94DE0284E0A3
:1010E00090E00E94110766E970E080E090E00E94C5
:1010F000DE0286E392E0DF91CF910C9419040E9406
:10110000BC06B2CF1F920F920FB60F9211242F93ED
:101110003F934F935F936F937F938F939F93AF937F
:10112000BF93EF93FF9382EB93E00E940A01FF913C
:10113000EF91BF91AF919F918F917F916F915F914F
:101140004F913F912F910F900FBE0F901F901895C8
:101150001F920F920FB60F9211242F938F939F938C
:10116000EF93FF93E091C203F091C3038081E0917C
:10117000C803F091C90382FD1BC090818091CB030D
:101180008F5F8F732091CC03821741F0E091CB03E6
:10119000F0E0EE54FC4F958F8093CB03FF91EF91DD
:1011A0009F918F912F910F900FBE0F901F901895C8
:1011B0008081F4CF1F920F920FB60F9211242F93BC
:1011C0003F938F939F93AF93BF9380919B03909195
:1011D0009C03A0919D03B0919E0330919A0326E059
:1011E000230F2D3758F50296A11DB11D20939A03A8
:1011F00080939B0390939C03A0939D03B0939E03C5
:1012000080919F039091A003A091A103B091A203AC
:101210000196A11DB11D80939F039093A003A093FD
:10122000A103B093A203BF91AF919F918F913F9182
:101230002F910F900FBE0F901F90189529E8230F44
:101240000396A11DB11DD2CF1F920F920FB60F9220
:10125000112410928500109284000F900FBE0F9001
:101260001F9018951F920F920FB60F9211240F9096
:101270000FBE0F901F9018951F920F920FB60F92EE
:1012800011240F900FBE0F901F9018950F931F936E
:10129000CF93DF93E2EBF3E01382128288EE93E0C8
:1012A000A0E0B0E084839583A683B78386E091E0D5
:1012B0009183808385EC90E09587848784EC90E02F
:1012C0009787868780EC90E0918B808B81EC90E013
:1012D000938B828B82EC90E0958B848B86EC90E0F4
:1012E000978B868B118E128E138E148EC2E5D4E0EE
:1012F0000DE008838BE08A831CE0198361E00E9483
:10130000190261E088810E94190260E089810E94CF
:10131000190261E08A810E94EB01CFE4D4E00883E6
:101320008AE08A83198361E00E94190261E0888162
:101330000E94190260E089810E94190261E08A819D
:10134000DF91CF911F910F910C94EB01789484B5AC
:10135000826084BD84B5816084BD85B5826085BDB1
:1013600085B5816085BD80916E00816080936E003F
:101370001092810080918100826080938100809131
:1013800081008160809381008091800081608093E2
:1013900080008091B10084608093B1008091B000A2
:1013A00081608093B00080917A00846080937A009D
:1013B00080917A00826080937A0080917A008E7F9B
:1013C00080937A0080917A00806880937A001092EE
:1013D000C100E091C203F091C30382E08083E091F9
:1013E000BE03F091BF031082E091C003F091C103EE
:1013F00088E080831092CA03E091C603F091C7038E
:1014000086E08083E091C403F091C5038081806110
:101410008083E091C403F091C5038081886080835C
:10142000E091C403F091C503808180688083E091DE
:10143000C403F091C50380818F7D808361E080E0EB
:101440000E94190261E080E00E94EB0161E084E00B
:101450000E94190261E083E00E94190261E082E0CB
:101460000E94190261E088E00E94190260E088E0B1
:101470000E94EB0161E089E00E94190260E089E0CE
:101480000E94EB0184B1806C84B92E982F9861E0A2
:1014900082E10E94190260E082E10E94EB0161E0BA
:1014A00081E10E94190260E081E10E94EB0161E0AC
:1014B00080E10E94190260E080E10E94EB0160E09F
:1014C00084E10E94190260E087E00E94190261E055
:1014D00086E00E94190261E085E00E94190260E046
:1014E00086E00E94EB0160E085E00E94EB0160E095
:1014F0008EE00E94190260E085E10E94190260E01E
:101500008FE00E94190287E00E94C201892B09F036
:1015100092C089E592E00E94190490E080E00E9468
:1015200011078091B003882329F08091AF0361E017
:10153000811101C060E080E00E94EB011092A803DD
:101540001092A70361E080E10E94EB011092A603D4
:101550001092A5031092A4031092A30388248A94E6
:1015600083E0982E01E010E0EE24E394F12C23E0D8
:10157000C22ED12C32E0A32EB12C1092B103909246
:10158000010180920001412C512C3201312C842D1B
:101590008D7F843019F182E992E00E9417044AE0BD
:1015A000C301B2010E94B20389EA92E00E941704CB
:1015B000842D0E94870390930101809300010E9473
:1015C00003058091000190910101CC973CF4C80182
:1015D000042C01C0880F0A94EAF7382A8FEF481AC2
:1015E000580A680A780A98E049165104610471049F
:1015F00071F63092B10382EB92E00E941704609181
:10160000B10370E090E080E04AE00E94B20384E120
:1016100091E00E94A503C091B103C03209F408C152
:1016200048F5C23009F488C048F4C13009F466C0F6
:101630001092AE032CC082E792E06DCFC43009F463
:10164000A6C0C830A9F71092AE038CE393E00E94C5
:101650001904F092AD03E092AC038091B0038823AB
:10166000B1F08091AF03882391F081E090E00E9477
:10167000FB070DC0C03809F4F2C020F4C832C1F62F
:101680002F9A05C0C83809F403C1C03A89F61092F0
:10169000AB031092AA0390E080E00E941B0590E04B
:1016A00080E00E94A60590E080E00E945A068091AA
:1016B000B003882309F4EEC08091AF03882309F4B6
:1016C000E9C061E080E00E94EB011092A903109252
:1016D000A8031092A70368EE73E080E090E00E94F8
:1016E000DE0280E090E0892B09F447CF0E94F600EB
:1016F000882309F442CF0E9400003FCF85EC92E09E
:101700000E9419048091B003882351F08091AF03A7
:10171000882331F08091AE03811107C0C093AE03DE
:101720001092AD031092AC03B2CF1092AE038CEDC9
:1017300092E00E941904F4CF1092AE038091AF039F
:10174000882371F38AE093E00E94190481E090E01D
:101750000E94110761E080E10E94EB0166E970E000
:1017600080E090E00E94DE022F9A70E060E082E06C
:1017700090E00E94BC062F9884E090E00E94110740
:1017800066E970E080E090E00E94DE02C9CF10922E
:10179000AE038091B003882319F283E293E00E94A4
:1017A000190481E090E00E94110766E970E080E092
:1017B00090E00E94DE0282E090E00E94110766E95C
:1017C00070E080E090E00E94DE0261E082E10E9431
:1017D000EB0166E970E080E090E00E94DE0261E0EB
:1017E00081E10E94EB0166E970E080E090E00E94F8
:1017F000DE0261E089E00E94EB0162E070E08FE0D0
:1018000090E00E94BC0660E089E00E94EB0166E97E
:1018100070E080E090E00E94DE0283E090E00E94B1
:10182000110766E970E080E090E00E94DE02A4CF3C
:101830001092AE0383E593E00E941904D092AD03A9
:10184000C092AC038091B003882309F420CF80912B
:10185000AF03882309F41BCF83E090E008CF1092F8
:10186000AE03B092AD03A092AC038AE693E00E946F
:1018700019048091B003882309F409CF8091AF0344
:10188000882309F404CF8091AC039091AD03EFCE8F
:101890002F98FDCE8091A7039091A80382309105E7
:1018A000FCF082E893E00E9417046091A90370E0C5
:1018B00090E080E04AE00E94B20383E993E00E9456
:1018C00019041092A8031092A7037090A903672D22
:1018D00080E00E94EB0181E078267092A903FBCEA4
:1018E00001969093A8038093A703F5CE5058BB2789
:1018F000AA270E948E0C0C94010E0E94F30D38F062
:101900000E94FA0D20F039F49F3F19F426F40C944C
:10191000F00D0EF4E095E7FB0C94EA0DE92F0E9420
:10192000120E58F3BA17620773078407950720F061
:1019300079F4A6F50C94340E0EF4E0950B2EBA2F24
:10194000A02D0B01B90190010C01CA01A0011124C5
:10195000FF27591B99F0593F50F4503E68F11A1671
:10196000F040A22F232F342F4427585FF3CF469502
:1019700037952795A795F0405395C9F77EF41F1624
:10198000BA0B620B730B840BBAF09150A1F0FF0FEE
:10199000BB1F661F771F881FC2F70EC0BA0F621FDA
:1019A000731F841F48F4879577956795B795F795CA
:1019B0009E3F08F0B0CF9395880F08F09927EE0F5F
:1019C0009795879508950E94C60D08F481E00895C3
:1019D0000E94FC0C0C94010E0E94FA0D58F00E941B
:1019E000F30D40F029F45F3F29F00C94EA0D5111FA
:1019F0000C94350E0C94F00D0E94120E68F399238E
:101A0000B1F3552391F3951B550BBB27AA276217FA
:101A10007307840738F09F5F5F4F220F331F441F07
:101A2000AA1FA9F335D00E2E3AF0E0E832D091503B
:101A30005040E695001CCAF72BD0FE2F29D0660F28
:101A4000771F881FBB1F261737074807AB07B0E86B
:101A500009F0BB0B802DBF01FF2793585F4F3AF071
:101A60009E3F510578F00C94EA0D0C94350E5F3FC3
:101A7000E4F3983ED4F3869577956795B795F795F7
:101A80009F5FC9F7880F911D9695879597F90895DF
:101A9000E1E0660F771F881FBB1F6217730784077B
:101AA000BA0720F0621B730B840BBA0BEE1F88F78A
:101AB000E09508950E941A0E88F09F5798F0B92F6C
:101AC0009927B751B0F0E1F0660F771F881F991F73
:101AD0001AF0BA95C9F714C0B13091F00E94340ED3
:101AE000B1E008950C94340E672F782F8827B85FE3
:101AF00039F0B93FCCF3869577956795B395D9F7CB
:101B00003EF490958095709561957F4F8F4F9F4FD4
:101B10000895E89409C097FB3EF4909580957095E0
:101B200061957F4F8F4F9F4F9923A9F0F92F96E929
:101B3000BB279395F695879577956795B795F1119E
:101B4000F8CFFAF4BB0F11F460FF1BC06F5F7F4F3B
:101B50008F4F9F4F16C0882311F096E911C077234D
:101B600021F09EE8872F762F05C0662371F096E856
:101B7000862F70E060E02AF09A95660F771F881F25
:101B8000DAF7880F9695879597F90895990F0008C9
:101B9000550FAA0BE0E8FEEF16161706E807F9073F
:101BA000C0F012161306E407F50798F0621B730BDA
:101BB000840B950B39F40A2661F0232B242B252B5B
:101BC00021F408950A2609F4A140A6958FEF811DFE
:101BD000811D089597F99F6780E870E060E008959F
:101BE0009FEF80EC089500240A9416161706180635
:101BF0000906089500240A94121613061406050611
:101C00000895092E0394000C11F4882352F0BB0FA1
:101C100040F4BF2B11F460FF04C06F5F7F4F8F4F04
:101C20009F4F089557FD9058440F551F59F05F3F3F
:101C300071F04795880F97FB991F61F09F3F79F0EE
:101C400087950895121613061406551FF2CF469570
:101C5000F1DF08C0161617061806991FF1CF8695F2
:101C60007105610508940895E894BB2766277727D6
:101C7000CB0197F908950E94C60D08F48FEF0895DF
:101C80000E94530E0C94010E0E94F30D38F00E9436
:101C9000FA0D20F0952311F00C94EA0D0C94F00D40
:101CA00011240C94350E0E94120E70F3959FC1F30F
:101CB000950F50E0551F629FF001729FBB27F00DFA
:101CC000B11D639FAA27F00DB11DAA1F649F66274F
:101CD000B00DA11D661F829F2227B00DA11D621F9E
:101CE000739FB00DA11D621F839FA00D611D221F58
:101CF000749F3327A00D611D231F849F600D211D3C
:101D0000822F762F6A2F11249F5750409AF0F1F0BE
:101D100088234AF0EE0FFF1FBB1F661F771F881F27
:101D200091505040A9F79E3F510580F00C94EA0D68
:101D30000C94350E5F3FE4F3983ED4F38695779587
:101D40006795B795F795E7959F5FC1F7FE2B880FCD
:101D5000911D9695879597F908950E94C60D880B59
:101D6000990B089597FB072E16F4009407D077FD82
:101D700009D00E94E80E07FC05D03EF490958195AD
:101D80009F4F0895709561957F4F0895A1E21A2E97
:101D9000AA1BBB1BFD010DC0AA1FBB1FEE1FFF1F0F
:101DA000A217B307E407F50720F0A21BB30BE40B5F
:101DB000F50B661F771F881F991F1A9469F76095A6
:101DC0007095809590959B01AC01BD01CF01089560
:101DD000AA1BBB1B51E107C0AA1FBB1FA617B70751
:101DE00010F0A61BB70B881F991F5A95A9F780956D
:101DF0009095BC01CD010895EE0FFF1F0590F49161
:081E0000E02D0994F894FFCFD6
:101E0800FF03000000002C018C00B9007901EA00F2
:101E1800C800DC000D0A006E616E00696E66006F16
:101E280076660057614C6576656C2D343D20005010
:101E3800726573737572652053656E736F72205681
:101E4800616C75653A20005761746572204C6F7734
:101E58002050726573737572652848656174657280
:101E6800204F6E2E212100576174657220486561EC
:101E7800746572204F66662021210057617465726F
:101E880020426F78205265616479204F6B212100D0
:101E98004320323D200052654C6576656C2D363DF9
:101EA800200052656369706520426F782052656131
:101EB8006479204F6B2121004320313D2000537469
:101EC80065616D20426F78205265616479204F6B9F
:101ED800212100416D6269656E742053656E736FD0
:101EE800722870696E2D00293A2000484947480039
:101EF8004C4F57004D6F746F72204D6F7665203AC6
:101F0800204D6F746F72204572726F7220466C613B
:101F1800673D20006C6D735F73746172745F427506
:101F280074746F6E50726573732D2D53746172746F
:101F38002D2D2D2121006C6D735F73746172745F98
:101F4800427574746F6E50726573732D2D456E648F
:101F58002E2E2E2D2D2D2121004D6F746F722045B0
:101F680046204572726F72212120284C4F57293F15
:101F78003F004D6F746F72204546204E6F2D45729D
:101F8800726F72202848494748292D2D2D2D2D2163
:101F980021004D75782053656E736F7228737769C9
:101FA8007463682D63682920002072656164733A40
:101FB8002000675F627974654D757856616C756548
:101FC80031203A2000537461727420427574746F22
:101FD8006E205072657373656421210053746172B9
:101FE8007420427574746F6E205265616C202D2DBB
:101FF8002D2D2D2D2D20436F6E74696E7565205023
:102008007265737365642021210077617465725F5E
:10201800427574746F6E50726573732D2D2D2D2D4E
:10202800212100737465616D5F427574746F6E5021
:10203800726573732D2D2D2D2D2121004C61726732
:102048006520427574746F6E205072657373656491
:10205800212100536D616C6C2D427574746F6E2074
:10206800507265737365642121004D656469756DEF
:1020780020427574746F6E205072657373656421A5
:1020880021004C454420546F67676C652E2E2E2E18
:082098002E5B005D20212100F8
:00000001FF
