:100000000C945D000C9485000C9485000C94850084
:100010000C94F3020C9485000C94FD020C94850062
:100020000C9485000C9485000C9485000C94E502DA
:100030000C9485000C9485000C9485000C9485002C
:100040000C949B020C9485000C9469020C9443025E
:100050000C9485000C9485000C9485000C9485000C
:100060000C9485000C9485000000000024002700FB
:100070002A0000000000250028002B0004040404CE
:100080000404040402020202020203030303030342
:10009000010204081020408001020408102001021F
:1000A00004081020000000080002010000030407FB
:1000B0000000000000000000070311241FBECFEF66
:1000C000D8E0DEBFCDBF11E0A0E0B1E0EEEBF8E09C
:1000D00002C005900D92AC32B107D9F721E0ACE235
:1000E000B1E001C01D92AD3DB207E1F710E0CDE5F2
:1000F000D0E004C02197FE010E945704CC35D107FF
:10010000C9F70E9467030C945D040C940000AF9241
:10011000BF92CF92DF92EF92FF920F931F93CF93F4
:10012000DF936C017B018B01040F151FEB015E0156
:10013000AE18BF08C017D10759F06991D601ED91EB
:10014000FC910190F081E02DC6010995892B79F78A
:10015000C501DF91CF911F910F91FF90EF90DF903C
:10016000CF90BF90AF900895FC01538D448D252F03
:1001700030E0842F90E0821B930B541710F0CF9641
:10018000089501970895FC01918D828D981761F073
:10019000A28DAE0FBF2FB11D5D968C91928D9F5F8A
:1001A0009F73928F90E008958FEF9FEF0895FC0169
:1001B000918D828D981731F0828DE80FF11D858D1C
:1001C00090E008958FEF9FEF0895FC01918D228DAF
:1001D000892F90E0805C9F4F821B91098F73992734
:1001E00008958AE391E00E94E50021E0892B09F45B
:1001F00020E0822F089580E090E0892B29F00E9472
:10020000F10081110C9400000895FC01A48DA80F49
:10021000B92FB11DA35ABF4F2C91848D90E0019648
:100220008F739927848FA689B7892C93A089B18968
:100230008C91837080648C93938D848D981306C009
:100240000288F389E02D80818F7D80830895EF926D
:10025000FF920F931F93CF93DF93EC0181E0888F80
:100260009B8D8C8D98131AC0E889F989808185FF50
:1002700015C09FB7F894EE89FF896083E889F989F2
:1002800080818370806480839FBF81E090E0DF91F4
:10029000CF911F910F91FF90EF900895F62E0B8D47
:1002A00010E00F5F1F4F0F731127E02E8C8D8E1102
:1002B0000CC00FB607FCFACFE889F989808185FF69
:1002C000F5CFCE010E940501F1CFEB8DEC0FFD2F94
:1002D000F11DE35AFF4FF0829FB7F8940B8FEA8924
:1002E000FB8980818062CFCFCF93DF93EC01888D33
:1002F0008823B9F0AA89BB89E889F9898C9185FDA1
:1003000003C0808186FD0DC00FB607FCF7CF8C912E
:1003100085FFF2CF808185FFEDCFCE010E940501E0
:10032000E9CFDF91CF91089590E0FC01EC55FF4FAC
:100330002491FC01E057FF4F3491FC01E458FF4F3A
:10034000E491EE23C9F0222339F0233001F1A8F41F
:10035000213019F1223029F1F0E0EE0FFF1FEE58A5
:10036000FF4FA591B4918FB7F894EC91611126C01D
:1003700030953E233C938FBF08952730A9F0283055
:10038000C9F0243049F7809180008F7D03C08091AF
:1003900080008F7780938000DFCF84B58F7784BD16
:1003A000DBCF84B58F7DFBCF8091B0008F778093BA
:1003B000B000D2CF8091B0008F7DF9CF3E2BDACF45
:1003C000CF93DF9390E0FC01E057FF4F24918458D6
:1003D0009F4FFC0184918823D1F090E0880F991FF2
:1003E000FC01E859FF4FA591B491FC01EE58FF4F75
:1003F000C591D49161110EC09FB7F8948C91E22FF2
:10040000E0958E238C932881E223E8839FBFDF91C0
:10041000CF9108958FB7F894EC91E22BEC938FBFB6
:10042000F6CF3FB7F8948091330190913401A091B9
:100430003501B091360126B5A89B05C02F3F19F0B4
:100440000196A11DB11D3FBFBA2FA92F982F882754
:10045000BC01CD01620F711D811D911D43E0660F2E
:10046000771F881F991F4A95D1F70895FC010190C5
:100470000020E9F73197AF01481B590BBC018AE313
:1004800091E00C9487001F920F920FB60F921124E7
:100490002F933F934F935F936F937F938F939F938C
:1004A000AF93BF93EF93FF938AE391E00E9405011E
:1004B000FF91EF91BF91AF919F918F917F916F913C
:1004C0005F914F913F912F910F900FBE0F901F9012
:1004D00018951F920F920FB60F9211242F938F939E
:1004E0009F93EF93FF93E0914A01F0914B0180813C
:1004F000E0915001F091510182FD1BC090818091EB
:1005000053018F5F8F7320915401821741F0E09166
:100510005301F0E0E65CFE4F958F80935301FF910D
:10052000EF919F918F912F910F900FBE0F901F9081
:1005300018958081F4CF1F920F920FB60F9211245D
:100540002F933F938F939F93AF93BF9380912F01EE
:1005500090913001A0913101B091320130912E0182
:1005600026E0230F2D3758F50296A11DB11D2093CB
:100570002E0180932F0190933001A0933101B0930D
:1005800032018091330190913401A0913501B091F5
:1005900036010196A11DB11D809333019093340162
:1005A000A0933501B0933601BF91AF919F918F9188
:1005B0003F912F910F900FBE0F901F90189529E833
:1005C000230F0396A11DB11DD2CF1F920F920FB61C
:1005D0000F92112410928500109284000F900FBE8C
:1005E0000F901F9018951F920F920FB60F92112423
:1005F0000F900FBE0F901F9018951F920F920FB67D
:100600000F9211240F900FBE0F901F9018950F930B
:100610001F93CF93DF93EAE3F1E01382128288EE17
:1006200093E0A0E0B0E084839583A683B78384E061
:1006300091E09183808385EC90E09587848784ECBA
:1006400090E09787868780EC90E0918B808B81EC9F
:1006500090E0938B828B82EC90E0958B848B86EC80
:1006600090E0978B868B118E128E138E148ECAEDAE
:10067000D1E00DE008838BE08A831CE0198361E000
:100680000E94E00161E088810E94E00160E08981D0
:100690000E94E00161E08A810E949401C7EDD1E0EF
:1006A00008838AE08A83198361E00E94E00161E0A7
:1006B00088810E94E00160E089810E94E00161E0A0
:1006C0008A81DF91CF911F910F910C949401CF9368
:1006D000DF93CDB7DEB7A1970FB6F894DEBF0FBE9C
:1006E000CDBF789484B5826084BD84B5816084BDBB
:1006F00085B5826085BD85B5816085BD80916E00C0
:10070000816080936E0010928100809181008260F0
:10071000809381008091810081608093810080912D
:1007200080008160809380008091B100846080931C
:10073000B1008091B00081608093B00080917A0018
:10074000846080937A0080917A00826080937A003E
:1007500080917A008E7F80937A0080917A00806801
:1007600080937A001092C100E0914A01F0914B0110
:1007700082E08083E0914601F09147011082E09190
:100780004801F091490188E0808310925201E09184
:100790004E01F0914F0186E08083E0914C01F09191
:1007A0004D01808180618083E0914C01F0914D0189
:1007B000808188608083E0914C01F0914D018081BF
:1007C00080688083E0914C01F0914D0180818F7DA4
:1007D000808361E080E00E94E00161E080E00E94AF
:1007E000940101E090E0E92E90E0F92E809138012B
:1007F00090913901823091050CF453C082E191E06F
:100800000E9436028091370119A2805D88A3CE0133
:1008100080960E94360283E291E00E94360288E2CE
:1008200091E00E9436021092390110923801109125
:100830003701612F80E00E94940110271093370147
:100840000E9411022B013C0188EE882E83E0982E35
:10085000A12CB12C0E94110264197509860997090F
:10086000683E734081059105A8F321E0821A910842
:10087000A108B10888EE480E83E0581E611C711C67
:1008800081149104A104B10429F7E114F10409F4DD
:10089000ADCF0E94F100882309F4A8CF0E94000088
:1008A000A5CF01969093390180933801C9CFEE0FFF
:0E08B000FF1F0590F491E02D0994F894FFCFFE
:1008BE000000000027018700B4007401E500C300AA
:1008CE00D7004C454420546F67676C652E2E2E2E34
:0C08DE002E5B005D202121000D0A0000AF
:00000001FF
